{
  "_format": "hh-sol-artifact-1",
  "contractName": "ReentrancyAuction",
  "sourceName": "contracts/Reentrancy.sol",
  "abi": [
    {
      "inputs": [],
      "name": "bid",
      "outputs": [],
      "stateMutability": "payable",
      "type": "function"
    },
    {
      "inputs": [
        {
          "internalType": "address",
          "name": "",
          "type": "address"
        }
      ],
      "name": "bidders",
      "outputs": [
        {
          "internalType": "uint256",
          "name": "",
          "type": "uint256"
        }
      ],
      "stateMutability": "view",
      "type": "function"
    },
    {
      "inputs": [],
      "name": "currentBalance",
      "outputs": [
        {
          "internalType": "uint256",
          "name": "",
          "type": "uint256"
        }
      ],
      "stateMutability": "view",
      "type": "function"
    },
    {
      "inputs": [],
      "name": "refund",
      "outputs": [],
      "stateMutability": "nonpayable",
      "type": "function"
    }
  ],
  "bytecode": "0x608060405234801561001057600080fd5b506104a5806100206000396000f3fe60806040526004361061003f5760003560e01c80631998aeef14610044578063590e1ae31461004e578063ce845d1d14610065578063fcc8f79314610090575b600080fd5b61004c6100cd565b005b34801561005a57600080fd5b50610063610124565b005b34801561007157600080fd5b5061007a610265565b604051610087919061029e565b60405180910390f35b34801561009c57600080fd5b506100b760048036038101906100b2919061031c565b61026d565b6040516100c4919061029e565b60405180910390f35b346000803373ffffffffffffffffffffffffffffffffffffffff1673ffffffffffffffffffffffffffffffffffffffff168152602001908152602001600020600082825461011b9190610378565b92505081905550565b60008060003373ffffffffffffffffffffffffffffffffffffffff1673ffffffffffffffffffffffffffffffffffffffff16815260200190815260200160002054905060008111156102625760003373ffffffffffffffffffffffffffffffffffffffff1682604051610196906103dd565b60006040518083038185875af1925050503d80600081146101d3576040519150601f19603f3d011682016040523d82523d6000602084013e6101d8565b606091505b505090508061021c576040517f08c379a00000000000000000000000000000000000000000000000000000000081526004016102139061044f565b60405180910390fd5b60008060003373ffffffffffffffffffffffffffffffffffffffff1673ffffffffffffffffffffffffffffffffffffffff16815260200190815260200160002081905550505b50565b600047905090565b60006020528060005260406000206000915090505481565b6000819050919050565b61029881610285565b82525050565b60006020820190506102b3600083018461028f565b92915050565b600080fd5b600073ffffffffffffffffffffffffffffffffffffffff82169050919050565b60006102e9826102be565b9050919050565b6102f9816102de565b811461030457600080fd5b50565b600081359050610316816102f0565b92915050565b600060208284031215610332576103316102b9565b5b600061034084828501610307565b91505092915050565b7f4e487b7100000000000000000000000000000000000000000000000000000000600052601160045260246000fd5b600061038382610285565b915061038e83610285565b92508282019050808211156103a6576103a5610349565b5b92915050565b600081905092915050565b50565b60006103c76000836103ac565b91506103d2826103b7565b600082019050919050565b60006103e8826103ba565b9150819050919050565b600082825260208201905092915050565b7f6661696c65640000000000000000000000000000000000000000000000000000600082015250565b60006104396006836103f2565b915061044482610403565b602082019050919050565b600060208201905081810360008301526104688161042c565b905091905056fea2646970667358221220c0a72fb644875f7fbcab8879fed943dd88f8274e969c4aa4f94c78c40f735a5364736f6c63430008110033",
  "linkReferences": {},
  "deployedLinkReferences": {}
}