{"contracts/AucEngine.sol":{"AucEngine":{"abi":[{"inputs":[],"stateMutability":"nonpayable","type":"constructor"},{"anonymous":false,"inputs":[{"indexed":false,"internalType":"uint256","name":"index","type":"uint256"},{"indexed":false,"internalType":"string","name":"itemName","type":"string"},{"indexed":false,"internalType":"uint256","name":"startingPrice","type":"uint256"},{"indexed":false,"internalType":"uint256","name":"duration","type":"uint256"}],"name":"AuctionCreated","type":"event"},{"anonymous":false,"inputs":[{"indexed":false,"internalType":"uint256","name":"index","type":"uint256"},{"indexed":false,"internalType":"uint256","name":"finalPrice","type":"uint256"},{"indexed":false,"internalType":"address","name":"winner","type":"address"}],"name":"AuctionEnded","type":"event"},{"inputs":[{"internalType":"uint256","name":"","type":"uint256"}],"name":"auctions","outputs":[{"internalType":"address payable","name":"seller","type":"address"},{"internalType":"uint256","name":"startingPrice","type":"uint256"},{"internalType":"uint256","name":"finalPrice","type":"uint256"},{"internalType":"uint256","name":"startAt","type":"uint256"},{"internalType":"uint256","name":"endsAt","type":"uint256"},{"internalType":"uint256","name":"discountRate","type":"uint256"},{"internalType":"string","name":"item","type":"string"},{"internalType":"bool","name":"stopped","type":"bool"}],"stateMutability":"view","type":"function"},{"inputs":[{"internalType":"uint256","name":"index","type":"uint256"}],"name":"buy","outputs":[],"stateMutability":"payable","type":"function"},{"inputs":[{"internalType":"uint256","name":"_startingPrice","type":"uint256"},{"internalType":"uint256","name":"_discountRate","type":"uint256"},{"internalType":"string","name":"_item","type":"string"},{"internalType":"uint256","name":"_duration","type":"uint256"}],"name":"createAuction","outputs":[],"stateMutability":"nonpayable","type":"function"},{"inputs":[{"internalType":"uint256","name":"index","type":"uint256"}],"name":"getPriceFor","outputs":[{"internalType":"uint256","name":"","type":"uint256"}],"stateMutability":"view","type":"function"},{"inputs":[],"name":"owner","outputs":[{"internalType":"address","name":"","type":"address"}],"stateMutability":"view","type":"function"},{"inputs":[{"internalType":"address payable","name":"_to","type":"address"}],"name":"withdraw","outputs":[],"stateMutability":"nonpayable","type":"function"}],"evm":{"bytecode":{"linkReferences":{},"object":"608060405234801561001057600080fd5b50336000806101000a81548173ffffffffffffffffffffffffffffffffffffffff021916908373ffffffffffffffffffffffffffffffffffffffff16021790555061161f806100606000396000f3fe6080604052600436106100555760003560e01c80634534cd9c1461005a57806351cff8d914610097578063571a26a0146100c05780638da5cb5b14610104578063d96a094a1461012f578063e9835d151461014b575b600080fd5b34801561006657600080fd5b50610081600480360381019061007c9190610a83565b610174565b60405161008e9190610abf565b60405180910390f35b3480156100a357600080fd5b506100be60048036038101906100b99190610b38565b610363565b005b3480156100cc57600080fd5b506100e760048036038101906100e29190610a83565b6104ac565b6040516100fb989796959493929190610c1f565b60405180910390f35b34801561011057600080fd5b506101196105b9565b6040516101269190610cc5565b60405180910390f35b61014960048036038101906101449190610a83565b6105dd565b005b34801561015757600080fd5b50610172600480360381019061016d9190610e15565b610841565b005b6000806001838154811061018b5761018a610e98565b5b9060005260206000209060080201604051806101000160405290816000820160009054906101000a900473ffffffffffffffffffffffffffffffffffffffff1673ffffffffffffffffffffffffffffffffffffffff1673ffffffffffffffffffffffffffffffffffffffff168152602001600182015481526020016002820154815260200160038201548152602001600482015481526020016005820154815260200160068201805461023d90610ef6565b80601f016020809104026020016040519081016040528092919081815260200182805461026990610ef6565b80156102b65780601f1061028b576101008083540402835291602001916102b6565b820191906000526020600020905b81548152906001019060200180831161029957829003601f168201915b505050505081526020016007820160009054906101000a900460ff16151515158152505090508060e0015115610321576040517f08c379a000000000000000000000000000000000000000000000000000000000815260040161031890610f73565b60405180910390fd5b60008160600151426103339190610fc2565b90506000818360a001516103479190610ff6565b90508083602001516103599190610fc2565b9350505050919050565b8060008054906101000a900473ffffffffffffffffffffffffffffffffffffffff1673ffffffffffffffffffffffffffffffffffffffff163373ffffffffffffffffffffffffffffffffffffffff16146103f2576040517f08c379a00000000000000000000000000000000000000000000000000000000081526004016103e990611084565b60405180910390fd5b600073ffffffffffffffffffffffffffffffffffffffff168173ffffffffffffffffffffffffffffffffffffffff1603610461576040517f08c379a0000000000000000000000000000000000000000000000000000000008152600401610458906110f0565b60405180910390fd5b8173ffffffffffffffffffffffffffffffffffffffff166108fc479081150290604051600060405180830381858888f193505050501580156104a7573d6000803e3d6000fd5b505050565b600181815481106104bc57600080fd5b90600052602060002090600802016000915090508060000160009054906101000a900473ffffffffffffffffffffffffffffffffffffffff169080600101549080600201549080600301549080600401549080600501549080600601805461052390610ef6565b80601f016020809104026020016040519081016040528092919081815260200182805461054f90610ef6565b801561059c5780601f106105715761010080835404028352916020019161059c565b820191906000526020600020905b81548152906001019060200180831161057f57829003601f168201915b5050505050908060070160009054906101000a900460ff16905088565b60008054906101000a900473ffffffffffffffffffffffffffffffffffffffff1681565b6000600182815481106105f3576105f2610e98565b5b906000526020600020906008020190508060070160009054906101000a900460ff1615610655576040517f08c379a000000000000000000000000000000000000000000000000000000000815260040161064c90610f73565b60405180910390fd5b8060040154421061069b576040517f08c379a00000000000000000000000000000000000000000000000000000000081526004016106929061115c565b60405180910390fd5b60006106a683610174565b9050803410156106eb576040517f08c379a00000000000000000000000000000000000000000000000000000000081526004016106e2906111c8565b60405180910390fd5b60018260070160006101000a81548160ff0219169083151502179055508082600201819055506000813461071f9190610fc2565b90506000811115610772573373ffffffffffffffffffffffffffffffffffffffff166108fc829081150290604051600060405180830381858888f19350505050158015610770573d6000803e3d6000fd5b505b8260000160009054906101000a900473ffffffffffffffffffffffffffffffffffffffff1673ffffffffffffffffffffffffffffffffffffffff166108fc6064600a856107bf9190610ff6565b6107c99190611217565b846107d49190610fc2565b9081150290604051600060405180830381858888f193505050501580156107ff573d6000803e3d6000fd5b507fbafc4bda865d4d1f8d5b16f883e996fde0fe71112fac81503876d3537569440084833360405161083393929190611248565b60405180910390a150505050565b60008082146108505781610855565b6202a3005b905080846108639190610ff6565b8510156108a5576040517f08c379a000000000000000000000000000000000000000000000000000000000815260040161089c906112cb565b60405180910390fd5b60006040518061010001604052803373ffffffffffffffffffffffffffffffffffffffff16815260200187815260200187815260200142815260200183426108ed91906112eb565b8152602001868152602001858152602001600015158152509050600181908060018154018082558091505060019003906000526020600020906008020160009091909190915060008201518160000160006101000a81548173ffffffffffffffffffffffffffffffffffffffff021916908373ffffffffffffffffffffffffffffffffffffffff1602179055506020820151816001015560408201518160020155606082015181600301556080820151816004015560a0820151816005015560c08201518160060190816109c191906114cb565b5060e08201518160070160006101000a81548160ff02191690831515021790555050507f5bf34ed94988e5dcdc7d1faaa54eb1d3b55f45d5f11457e235afb21a8ebbe73c60018080549050610a169190610fc2565b858885604051610a29949392919061159d565b60405180910390a1505050505050565b6000604051905090565b600080fd5b600080fd5b6000819050919050565b610a6081610a4d565b8114610a6b57600080fd5b50565b600081359050610a7d81610a57565b92915050565b600060208284031215610a9957610a98610a43565b5b6000610aa784828501610a6e565b91505092915050565b610ab981610a4d565b82525050565b6000602082019050610ad46000830184610ab0565b92915050565b600073ffffffffffffffffffffffffffffffffffffffff82169050919050565b6000610b0582610ada565b9050919050565b610b1581610afa565b8114610b2057600080fd5b50565b600081359050610b3281610b0c565b92915050565b600060208284031215610b4e57610b4d610a43565b5b6000610b5c84828501610b23565b91505092915050565b610b6e81610afa565b82525050565b600081519050919050565b600082825260208201905092915050565b60005b83811015610bae578082015181840152602081019050610b93565b60008484015250505050565b6000601f19601f8301169050919050565b6000610bd682610b74565b610be08185610b7f565b9350610bf0818560208601610b90565b610bf981610bba565b840191505092915050565b60008115159050919050565b610c1981610c04565b82525050565b600061010082019050610c35600083018b610b65565b610c42602083018a610ab0565b610c4f6040830189610ab0565b610c5c6060830188610ab0565b610c696080830187610ab0565b610c7660a0830186610ab0565b81810360c0830152610c888185610bcb565b9050610c9760e0830184610c10565b9998505050505050505050565b6000610caf82610ada565b9050919050565b610cbf81610ca4565b82525050565b6000602082019050610cda6000830184610cb6565b92915050565b600080fd5b600080fd5b7f4e487b7100000000000000000000000000000000000000000000000000000000600052604160045260246000fd5b610d2282610bba565b810181811067ffffffffffffffff82111715610d4157610d40610cea565b5b80604052505050565b6000610d54610a39565b9050610d608282610d19565b919050565b600067ffffffffffffffff821115610d8057610d7f610cea565b5b610d8982610bba565b9050602081019050919050565b82818337600083830152505050565b6000610db8610db384610d65565b610d4a565b905082815260208101848484011115610dd457610dd3610ce5565b5b610ddf848285610d96565b509392505050565b600082601f830112610dfc57610dfb610ce0565b5b8135610e0c848260208601610da5565b91505092915050565b60008060008060808587031215610e2f57610e2e610a43565b5b6000610e3d87828801610a6e565b9450506020610e4e87828801610a6e565b935050604085013567ffffffffffffffff811115610e6f57610e6e610a48565b5b610e7b87828801610de7565b9250506060610e8c87828801610a6e565b91505092959194509250565b7f4e487b7100000000000000000000000000000000000000000000000000000000600052603260045260246000fd5b7f4e487b7100000000000000000000000000000000000000000000000000000000600052602260045260246000fd5b60006002820490506001821680610f0e57607f821691505b602082108103610f2157610f20610ec7565b5b50919050565b7f73746f7070656421000000000000000000000000000000000000000000000000600082015250565b6000610f5d600883610b7f565b9150610f6882610f27565b602082019050919050565b60006020820190508181036000830152610f8c81610f50565b9050919050565b7f4e487b7100000000000000000000000000000000000000000000000000000000600052601160045260246000fd5b6000610fcd82610a4d565b9150610fd883610a4d565b9250828203905081811115610ff057610fef610f93565b5b92915050565b600061100182610a4d565b915061100c83610a4d565b925082820261101a81610a4d565b9150828204841483151761103157611030610f93565b5b5092915050565b7f796f7520617265206e6f7420616e206f776e6572210000000000000000000000600082015250565b600061106e601583610b7f565b915061107982611038565b602082019050919050565b6000602082019050818103600083015261109d81611061565b9050919050565b7f696e636f72726563742061646472657373210000000000000000000000000000600082015250565b60006110da601283610b7f565b91506110e5826110a4565b602082019050919050565b60006020820190508181036000830152611109816110cd565b9050919050565b7f656e646564210000000000000000000000000000000000000000000000000000600082015250565b6000611146600683610b7f565b915061115182611110565b602082019050919050565b6000602082019050818103600083015261117581611139565b9050919050565b7f6e6f7420656e6f7567682066756e647321000000000000000000000000000000600082015250565b60006111b2601183610b7f565b91506111bd8261117c565b602082019050919050565b600060208201905081810360008301526111e1816111a5565b9050919050565b7f4e487b7100000000000000000000000000000000000000000000000000000000600052601260045260246000fd5b600061122282610a4d565b915061122d83610a4d565b92508261123d5761123c6111e8565b5b828204905092915050565b600060608201905061125d6000830186610ab0565b61126a6020830185610ab0565b6112776040830184610cb6565b949350505050565b7f696e636f7272656374207374617274696e672070726963650000000000000000600082015250565b60006112b5601883610b7f565b91506112c08261127f565b602082019050919050565b600060208201905081810360008301526112e4816112a8565b9050919050565b60006112f682610a4d565b915061130183610a4d565b925082820190508082111561131957611318610f93565b5b92915050565b60008190508160005260206000209050919050565b60006020601f8301049050919050565b600082821b905092915050565b6000600883026113817fffffffffffffffffffffffffffffffffffffffffffffffffffffffffffffffff82611344565b61138b8683611344565b95508019841693508086168417925050509392505050565b6000819050919050565b60006113c86113c36113be84610a4d565b6113a3565b610a4d565b9050919050565b6000819050919050565b6113e2836113ad565b6113f66113ee826113cf565b848454611351565b825550505050565b600090565b61140b6113fe565b6114168184846113d9565b505050565b5b8181101561143a5761142f600082611403565b60018101905061141c565b5050565b601f82111561147f576114508161131f565b61145984611334565b81016020851015611468578190505b61147c61147485611334565b83018261141b565b50505b505050565b600082821c905092915050565b60006114a260001984600802611484565b1980831691505092915050565b60006114bb8383611491565b9150826002028217905092915050565b6114d482610b74565b67ffffffffffffffff8111156114ed576114ec610cea565b5b6114f78254610ef6565b61150282828561143e565b600060209050601f8311600181146115355760008415611523578287015190505b61152d85826114af565b865550611595565b601f1984166115438661131f565b60005b8281101561156b57848901518255600182019150602085019450602081019050611546565b868310156115885784890151611584601f891682611491565b8355505b6001600288020188555050505b505050505050565b60006080820190506115b26000830187610ab0565b81810360208301526115c48186610bcb565b90506115d36040830185610ab0565b6115e06060830184610ab0565b9594505050505056fea2646970667358221220f552d1deb4fad7a061a02d764f14180943320eeb4079d10f261e53e2caf4871d64736f6c63430008110033","opcodes":"PUSH1 0x80 PUSH1 0x40 MSTORE CALLVALUE DUP1 ISZERO PUSH2 0x10 JUMPI PUSH1 0x0 DUP1 REVERT JUMPDEST POP CALLER PUSH1 0x0 DUP1 PUSH2 0x100 EXP DUP2 SLOAD DUP2 PUSH20 0xFFFFFFFFFFFFFFFFFFFFFFFFFFFFFFFFFFFFFFFF MUL NOT AND SWAP1 DUP4 PUSH20 0xFFFFFFFFFFFFFFFFFFFFFFFFFFFFFFFFFFFFFFFF AND MUL OR SWAP1 SSTORE POP PUSH2 0x161F DUP1 PUSH2 0x60 PUSH1 0x0 CODECOPY PUSH1 0x0 RETURN INVALID PUSH1 0x80 PUSH1 0x40 MSTORE PUSH1 0x4 CALLDATASIZE LT PUSH2 0x55 JUMPI PUSH1 0x0 CALLDATALOAD PUSH1 0xE0 SHR DUP1 PUSH4 0x4534CD9C EQ PUSH2 0x5A JUMPI DUP1 PUSH4 0x51CFF8D9 EQ PUSH2 0x97 JUMPI DUP1 PUSH4 0x571A26A0 EQ PUSH2 0xC0 JUMPI DUP1 PUSH4 0x8DA5CB5B EQ PUSH2 0x104 JUMPI DUP1 PUSH4 0xD96A094A EQ PUSH2 0x12F JUMPI DUP1 PUSH4 0xE9835D15 EQ PUSH2 0x14B JUMPI JUMPDEST PUSH1 0x0 DUP1 REVERT JUMPDEST CALLVALUE DUP1 ISZERO PUSH2 0x66 JUMPI PUSH1 0x0 DUP1 REVERT JUMPDEST POP PUSH2 0x81 PUSH1 0x4 DUP1 CALLDATASIZE SUB DUP2 ADD SWAP1 PUSH2 0x7C SWAP2 SWAP1 PUSH2 0xA83 JUMP JUMPDEST PUSH2 0x174 JUMP JUMPDEST PUSH1 0x40 MLOAD PUSH2 0x8E SWAP2 SWAP1 PUSH2 0xABF JUMP JUMPDEST PUSH1 0x40 MLOAD DUP1 SWAP2 SUB SWAP1 RETURN JUMPDEST CALLVALUE DUP1 ISZERO PUSH2 0xA3 JUMPI PUSH1 0x0 DUP1 REVERT JUMPDEST POP PUSH2 0xBE PUSH1 0x4 DUP1 CALLDATASIZE SUB DUP2 ADD SWAP1 PUSH2 0xB9 SWAP2 SWAP1 PUSH2 0xB38 JUMP JUMPDEST PUSH2 0x363 JUMP JUMPDEST STOP JUMPDEST CALLVALUE DUP1 ISZERO PUSH2 0xCC JUMPI PUSH1 0x0 DUP1 REVERT JUMPDEST POP PUSH2 0xE7 PUSH1 0x4 DUP1 CALLDATASIZE SUB DUP2 ADD SWAP1 PUSH2 0xE2 SWAP2 SWAP1 PUSH2 0xA83 JUMP JUMPDEST PUSH2 0x4AC JUMP JUMPDEST PUSH1 0x40 MLOAD PUSH2 0xFB SWAP9 SWAP8 SWAP7 SWAP6 SWAP5 SWAP4 SWAP3 SWAP2 SWAP1 PUSH2 0xC1F JUMP JUMPDEST PUSH1 0x40 MLOAD DUP1 SWAP2 SUB SWAP1 RETURN JUMPDEST CALLVALUE DUP1 ISZERO PUSH2 0x110 JUMPI PUSH1 0x0 DUP1 REVERT JUMPDEST POP PUSH2 0x119 PUSH2 0x5B9 JUMP JUMPDEST PUSH1 0x40 MLOAD PUSH2 0x126 SWAP2 SWAP1 PUSH2 0xCC5 JUMP JUMPDEST PUSH1 0x40 MLOAD DUP1 SWAP2 SUB SWAP1 RETURN JUMPDEST PUSH2 0x149 PUSH1 0x4 DUP1 CALLDATASIZE SUB DUP2 ADD SWAP1 PUSH2 0x144 SWAP2 SWAP1 PUSH2 0xA83 JUMP JUMPDEST PUSH2 0x5DD JUMP JUMPDEST STOP JUMPDEST CALLVALUE DUP1 ISZERO PUSH2 0x157 JUMPI PUSH1 0x0 DUP1 REVERT JUMPDEST POP PUSH2 0x172 PUSH1 0x4 DUP1 CALLDATASIZE SUB DUP2 ADD SWAP1 PUSH2 0x16D SWAP2 SWAP1 PUSH2 0xE15 JUMP JUMPDEST PUSH2 0x841 JUMP JUMPDEST STOP JUMPDEST PUSH1 0x0 DUP1 PUSH1 0x1 DUP4 DUP2 SLOAD DUP2 LT PUSH2 0x18B JUMPI PUSH2 0x18A PUSH2 0xE98 JUMP JUMPDEST JUMPDEST SWAP1 PUSH1 0x0 MSTORE PUSH1 0x20 PUSH1 0x0 KECCAK256 SWAP1 PUSH1 0x8 MUL ADD PUSH1 0x40 MLOAD DUP1 PUSH2 0x100 ADD PUSH1 0x40 MSTORE SWAP1 DUP2 PUSH1 0x0 DUP3 ADD PUSH1 0x0 SWAP1 SLOAD SWAP1 PUSH2 0x100 EXP SWAP1 DIV PUSH20 0xFFFFFFFFFFFFFFFFFFFFFFFFFFFFFFFFFFFFFFFF AND PUSH20 0xFFFFFFFFFFFFFFFFFFFFFFFFFFFFFFFFFFFFFFFF AND PUSH20 0xFFFFFFFFFFFFFFFFFFFFFFFFFFFFFFFFFFFFFFFF AND DUP2 MSTORE PUSH1 0x20 ADD PUSH1 0x1 DUP3 ADD SLOAD DUP2 MSTORE PUSH1 0x20 ADD PUSH1 0x2 DUP3 ADD SLOAD DUP2 MSTORE PUSH1 0x20 ADD PUSH1 0x3 DUP3 ADD SLOAD DUP2 MSTORE PUSH1 0x20 ADD PUSH1 0x4 DUP3 ADD SLOAD DUP2 MSTORE PUSH1 0x20 ADD PUSH1 0x5 DUP3 ADD SLOAD DUP2 MSTORE PUSH1 0x20 ADD PUSH1 0x6 DUP3 ADD DUP1 SLOAD PUSH2 0x23D SWAP1 PUSH2 0xEF6 JUMP JUMPDEST DUP1 PUSH1 0x1F ADD PUSH1 0x20 DUP1 SWAP2 DIV MUL PUSH1 0x20 ADD PUSH1 0x40 MLOAD SWAP1 DUP2 ADD PUSH1 0x40 MSTORE DUP1 SWAP3 SWAP2 SWAP1 DUP2 DUP2 MSTORE PUSH1 0x20 ADD DUP3 DUP1 SLOAD PUSH2 0x269 SWAP1 PUSH2 0xEF6 JUMP JUMPDEST DUP1 ISZERO PUSH2 0x2B6 JUMPI DUP1 PUSH1 0x1F LT PUSH2 0x28B JUMPI PUSH2 0x100 DUP1 DUP4 SLOAD DIV MUL DUP4 MSTORE SWAP2 PUSH1 0x20 ADD SWAP2 PUSH2 0x2B6 JUMP JUMPDEST DUP3 ADD SWAP2 SWAP1 PUSH1 0x0 MSTORE PUSH1 0x20 PUSH1 0x0 KECCAK256 SWAP1 JUMPDEST DUP2 SLOAD DUP2 MSTORE SWAP1 PUSH1 0x1 ADD SWAP1 PUSH1 0x20 ADD DUP1 DUP4 GT PUSH2 0x299 JUMPI DUP3 SWAP1 SUB PUSH1 0x1F AND DUP3 ADD SWAP2 JUMPDEST POP POP POP POP POP DUP2 MSTORE PUSH1 0x20 ADD PUSH1 0x7 DUP3 ADD PUSH1 0x0 SWAP1 SLOAD SWAP1 PUSH2 0x100 EXP SWAP1 DIV PUSH1 0xFF AND ISZERO ISZERO ISZERO ISZERO DUP2 MSTORE POP POP SWAP1 POP DUP1 PUSH1 0xE0 ADD MLOAD ISZERO PUSH2 0x321 JUMPI PUSH1 0x40 MLOAD PUSH32 0x8C379A000000000000000000000000000000000000000000000000000000000 DUP2 MSTORE PUSH1 0x4 ADD PUSH2 0x318 SWAP1 PUSH2 0xF73 JUMP JUMPDEST PUSH1 0x40 MLOAD DUP1 SWAP2 SUB SWAP1 REVERT JUMPDEST PUSH1 0x0 DUP2 PUSH1 0x60 ADD MLOAD TIMESTAMP PUSH2 0x333 SWAP2 SWAP1 PUSH2 0xFC2 JUMP JUMPDEST SWAP1 POP PUSH1 0x0 DUP2 DUP4 PUSH1 0xA0 ADD MLOAD PUSH2 0x347 SWAP2 SWAP1 PUSH2 0xFF6 JUMP JUMPDEST SWAP1 POP DUP1 DUP4 PUSH1 0x20 ADD MLOAD PUSH2 0x359 SWAP2 SWAP1 PUSH2 0xFC2 JUMP JUMPDEST SWAP4 POP POP POP POP SWAP2 SWAP1 POP JUMP JUMPDEST DUP1 PUSH1 0x0 DUP1 SLOAD SWAP1 PUSH2 0x100 EXP SWAP1 DIV PUSH20 0xFFFFFFFFFFFFFFFFFFFFFFFFFFFFFFFFFFFFFFFF AND PUSH20 0xFFFFFFFFFFFFFFFFFFFFFFFFFFFFFFFFFFFFFFFF AND CALLER PUSH20 0xFFFFFFFFFFFFFFFFFFFFFFFFFFFFFFFFFFFFFFFF AND EQ PUSH2 0x3F2 JUMPI PUSH1 0x40 MLOAD PUSH32 0x8C379A000000000000000000000000000000000000000000000000000000000 DUP2 MSTORE PUSH1 0x4 ADD PUSH2 0x3E9 SWAP1 PUSH2 0x1084 JUMP JUMPDEST PUSH1 0x40 MLOAD DUP1 SWAP2 SUB SWAP1 REVERT JUMPDEST PUSH1 0x0 PUSH20 0xFFFFFFFFFFFFFFFFFFFFFFFFFFFFFFFFFFFFFFFF AND DUP2 PUSH20 0xFFFFFFFFFFFFFFFFFFFFFFFFFFFFFFFFFFFFFFFF AND SUB PUSH2 0x461 JUMPI PUSH1 0x40 MLOAD PUSH32 0x8C379A000000000000000000000000000000000000000000000000000000000 DUP2 MSTORE PUSH1 0x4 ADD PUSH2 0x458 SWAP1 PUSH2 0x10F0 JUMP JUMPDEST PUSH1 0x40 MLOAD DUP1 SWAP2 SUB SWAP1 REVERT JUMPDEST DUP2 PUSH20 0xFFFFFFFFFFFFFFFFFFFFFFFFFFFFFFFFFFFFFFFF AND PUSH2 0x8FC SELFBALANCE SWAP1 DUP2 ISZERO MUL SWAP1 PUSH1 0x40 MLOAD PUSH1 0x0 PUSH1 0x40 MLOAD DUP1 DUP4 SUB DUP2 DUP6 DUP9 DUP9 CALL SWAP4 POP POP POP POP ISZERO DUP1 ISZERO PUSH2 0x4A7 JUMPI RETURNDATASIZE PUSH1 0x0 DUP1 RETURNDATACOPY RETURNDATASIZE PUSH1 0x0 REVERT JUMPDEST POP POP POP JUMP JUMPDEST PUSH1 0x1 DUP2 DUP2 SLOAD DUP2 LT PUSH2 0x4BC JUMPI PUSH1 0x0 DUP1 REVERT JUMPDEST SWAP1 PUSH1 0x0 MSTORE PUSH1 0x20 PUSH1 0x0 KECCAK256 SWAP1 PUSH1 0x8 MUL ADD PUSH1 0x0 SWAP2 POP SWAP1 POP DUP1 PUSH1 0x0 ADD PUSH1 0x0 SWAP1 SLOAD SWAP1 PUSH2 0x100 EXP SWAP1 DIV PUSH20 0xFFFFFFFFFFFFFFFFFFFFFFFFFFFFFFFFFFFFFFFF AND SWAP1 DUP1 PUSH1 0x1 ADD SLOAD SWAP1 DUP1 PUSH1 0x2 ADD SLOAD SWAP1 DUP1 PUSH1 0x3 ADD SLOAD SWAP1 DUP1 PUSH1 0x4 ADD SLOAD SWAP1 DUP1 PUSH1 0x5 ADD SLOAD SWAP1 DUP1 PUSH1 0x6 ADD DUP1 SLOAD PUSH2 0x523 SWAP1 PUSH2 0xEF6 JUMP JUMPDEST DUP1 PUSH1 0x1F ADD PUSH1 0x20 DUP1 SWAP2 DIV MUL PUSH1 0x20 ADD PUSH1 0x40 MLOAD SWAP1 DUP2 ADD PUSH1 0x40 MSTORE DUP1 SWAP3 SWAP2 SWAP1 DUP2 DUP2 MSTORE PUSH1 0x20 ADD DUP3 DUP1 SLOAD PUSH2 0x54F SWAP1 PUSH2 0xEF6 JUMP JUMPDEST DUP1 ISZERO PUSH2 0x59C JUMPI DUP1 PUSH1 0x1F LT PUSH2 0x571 JUMPI PUSH2 0x100 DUP1 DUP4 SLOAD DIV MUL DUP4 MSTORE SWAP2 PUSH1 0x20 ADD SWAP2 PUSH2 0x59C JUMP JUMPDEST DUP3 ADD SWAP2 SWAP1 PUSH1 0x0 MSTORE PUSH1 0x20 PUSH1 0x0 KECCAK256 SWAP1 JUMPDEST DUP2 SLOAD DUP2 MSTORE SWAP1 PUSH1 0x1 ADD SWAP1 PUSH1 0x20 ADD DUP1 DUP4 GT PUSH2 0x57F JUMPI DUP3 SWAP1 SUB PUSH1 0x1F AND DUP3 ADD SWAP2 JUMPDEST POP POP POP POP POP SWAP1 DUP1 PUSH1 0x7 ADD PUSH1 0x0 SWAP1 SLOAD SWAP1 PUSH2 0x100 EXP SWAP1 DIV PUSH1 0xFF AND SWAP1 POP DUP9 JUMP JUMPDEST PUSH1 0x0 DUP1 SLOAD SWAP1 PUSH2 0x100 EXP SWAP1 DIV PUSH20 0xFFFFFFFFFFFFFFFFFFFFFFFFFFFFFFFFFFFFFFFF AND DUP2 JUMP JUMPDEST PUSH1 0x0 PUSH1 0x1 DUP3 DUP2 SLOAD DUP2 LT PUSH2 0x5F3 JUMPI PUSH2 0x5F2 PUSH2 0xE98 JUMP JUMPDEST JUMPDEST SWAP1 PUSH1 0x0 MSTORE PUSH1 0x20 PUSH1 0x0 KECCAK256 SWAP1 PUSH1 0x8 MUL ADD SWAP1 POP DUP1 PUSH1 0x7 ADD PUSH1 0x0 SWAP1 SLOAD SWAP1 PUSH2 0x100 EXP SWAP1 DIV PUSH1 0xFF AND ISZERO PUSH2 0x655 JUMPI PUSH1 0x40 MLOAD PUSH32 0x8C379A000000000000000000000000000000000000000000000000000000000 DUP2 MSTORE PUSH1 0x4 ADD PUSH2 0x64C SWAP1 PUSH2 0xF73 JUMP JUMPDEST PUSH1 0x40 MLOAD DUP1 SWAP2 SUB SWAP1 REVERT JUMPDEST DUP1 PUSH1 0x4 ADD SLOAD TIMESTAMP LT PUSH2 0x69B JUMPI PUSH1 0x40 MLOAD PUSH32 0x8C379A000000000000000000000000000000000000000000000000000000000 DUP2 MSTORE PUSH1 0x4 ADD PUSH2 0x692 SWAP1 PUSH2 0x115C JUMP JUMPDEST PUSH1 0x40 MLOAD DUP1 SWAP2 SUB SWAP1 REVERT JUMPDEST PUSH1 0x0 PUSH2 0x6A6 DUP4 PUSH2 0x174 JUMP JUMPDEST SWAP1 POP DUP1 CALLVALUE LT ISZERO PUSH2 0x6EB JUMPI PUSH1 0x40 MLOAD PUSH32 0x8C379A000000000000000000000000000000000000000000000000000000000 DUP2 MSTORE PUSH1 0x4 ADD PUSH2 0x6E2 SWAP1 PUSH2 0x11C8 JUMP JUMPDEST PUSH1 0x40 MLOAD DUP1 SWAP2 SUB SWAP1 REVERT JUMPDEST PUSH1 0x1 DUP3 PUSH1 0x7 ADD PUSH1 0x0 PUSH2 0x100 EXP DUP2 SLOAD DUP2 PUSH1 0xFF MUL NOT AND SWAP1 DUP4 ISZERO ISZERO MUL OR SWAP1 SSTORE POP DUP1 DUP3 PUSH1 0x2 ADD DUP2 SWAP1 SSTORE POP PUSH1 0x0 DUP2 CALLVALUE PUSH2 0x71F SWAP2 SWAP1 PUSH2 0xFC2 JUMP JUMPDEST SWAP1 POP PUSH1 0x0 DUP2 GT ISZERO PUSH2 0x772 JUMPI CALLER PUSH20 0xFFFFFFFFFFFFFFFFFFFFFFFFFFFFFFFFFFFFFFFF AND PUSH2 0x8FC DUP3 SWAP1 DUP2 ISZERO MUL SWAP1 PUSH1 0x40 MLOAD PUSH1 0x0 PUSH1 0x40 MLOAD DUP1 DUP4 SUB DUP2 DUP6 DUP9 DUP9 CALL SWAP4 POP POP POP POP ISZERO DUP1 ISZERO PUSH2 0x770 JUMPI RETURNDATASIZE PUSH1 0x0 DUP1 RETURNDATACOPY RETURNDATASIZE PUSH1 0x0 REVERT JUMPDEST POP JUMPDEST DUP3 PUSH1 0x0 ADD PUSH1 0x0 SWAP1 SLOAD SWAP1 PUSH2 0x100 EXP SWAP1 DIV PUSH20 0xFFFFFFFFFFFFFFFFFFFFFFFFFFFFFFFFFFFFFFFF AND PUSH20 0xFFFFFFFFFFFFFFFFFFFFFFFFFFFFFFFFFFFFFFFF AND PUSH2 0x8FC PUSH1 0x64 PUSH1 0xA DUP6 PUSH2 0x7BF SWAP2 SWAP1 PUSH2 0xFF6 JUMP JUMPDEST PUSH2 0x7C9 SWAP2 SWAP1 PUSH2 0x1217 JUMP JUMPDEST DUP5 PUSH2 0x7D4 SWAP2 SWAP1 PUSH2 0xFC2 JUMP JUMPDEST SWAP1 DUP2 ISZERO MUL SWAP1 PUSH1 0x40 MLOAD PUSH1 0x0 PUSH1 0x40 MLOAD DUP1 DUP4 SUB DUP2 DUP6 DUP9 DUP9 CALL SWAP4 POP POP POP POP ISZERO DUP1 ISZERO PUSH2 0x7FF JUMPI RETURNDATASIZE PUSH1 0x0 DUP1 RETURNDATACOPY RETURNDATASIZE PUSH1 0x0 REVERT JUMPDEST POP PUSH32 0xBAFC4BDA865D4D1F8D5B16F883E996FDE0FE71112FAC81503876D35375694400 DUP5 DUP4 CALLER PUSH1 0x40 MLOAD PUSH2 0x833 SWAP4 SWAP3 SWAP2 SWAP1 PUSH2 0x1248 JUMP JUMPDEST PUSH1 0x40 MLOAD DUP1 SWAP2 SUB SWAP1 LOG1 POP POP POP POP JUMP JUMPDEST PUSH1 0x0 DUP1 DUP3 EQ PUSH2 0x850 JUMPI DUP2 PUSH2 0x855 JUMP JUMPDEST PUSH3 0x2A300 JUMPDEST SWAP1 POP DUP1 DUP5 PUSH2 0x863 SWAP2 SWAP1 PUSH2 0xFF6 JUMP JUMPDEST DUP6 LT ISZERO PUSH2 0x8A5 JUMPI PUSH1 0x40 MLOAD PUSH32 0x8C379A000000000000000000000000000000000000000000000000000000000 DUP2 MSTORE PUSH1 0x4 ADD PUSH2 0x89C SWAP1 PUSH2 0x12CB JUMP JUMPDEST PUSH1 0x40 MLOAD DUP1 SWAP2 SUB SWAP1 REVERT JUMPDEST PUSH1 0x0 PUSH1 0x40 MLOAD DUP1 PUSH2 0x100 ADD PUSH1 0x40 MSTORE DUP1 CALLER PUSH20 0xFFFFFFFFFFFFFFFFFFFFFFFFFFFFFFFFFFFFFFFF AND DUP2 MSTORE PUSH1 0x20 ADD DUP8 DUP2 MSTORE PUSH1 0x20 ADD DUP8 DUP2 MSTORE PUSH1 0x20 ADD TIMESTAMP DUP2 MSTORE PUSH1 0x20 ADD DUP4 TIMESTAMP PUSH2 0x8ED SWAP2 SWAP1 PUSH2 0x12EB JUMP JUMPDEST DUP2 MSTORE PUSH1 0x20 ADD DUP7 DUP2 MSTORE PUSH1 0x20 ADD DUP6 DUP2 MSTORE PUSH1 0x20 ADD PUSH1 0x0 ISZERO ISZERO DUP2 MSTORE POP SWAP1 POP PUSH1 0x1 DUP2 SWAP1 DUP1 PUSH1 0x1 DUP2 SLOAD ADD DUP1 DUP3 SSTORE DUP1 SWAP2 POP POP PUSH1 0x1 SWAP1 SUB SWAP1 PUSH1 0x0 MSTORE PUSH1 0x20 PUSH1 0x0 KECCAK256 SWAP1 PUSH1 0x8 MUL ADD PUSH1 0x0 SWAP1 SWAP2 SWAP1 SWAP2 SWAP1 SWAP2 POP PUSH1 0x0 DUP3 ADD MLOAD DUP2 PUSH1 0x0 ADD PUSH1 0x0 PUSH2 0x100 EXP DUP2 SLOAD DUP2 PUSH20 0xFFFFFFFFFFFFFFFFFFFFFFFFFFFFFFFFFFFFFFFF MUL NOT AND SWAP1 DUP4 PUSH20 0xFFFFFFFFFFFFFFFFFFFFFFFFFFFFFFFFFFFFFFFF AND MUL OR SWAP1 SSTORE POP PUSH1 0x20 DUP3 ADD MLOAD DUP2 PUSH1 0x1 ADD SSTORE PUSH1 0x40 DUP3 ADD MLOAD DUP2 PUSH1 0x2 ADD SSTORE PUSH1 0x60 DUP3 ADD MLOAD DUP2 PUSH1 0x3 ADD SSTORE PUSH1 0x80 DUP3 ADD MLOAD DUP2 PUSH1 0x4 ADD SSTORE PUSH1 0xA0 DUP3 ADD MLOAD DUP2 PUSH1 0x5 ADD SSTORE PUSH1 0xC0 DUP3 ADD MLOAD DUP2 PUSH1 0x6 ADD SWAP1 DUP2 PUSH2 0x9C1 SWAP2 SWAP1 PUSH2 0x14CB JUMP JUMPDEST POP PUSH1 0xE0 DUP3 ADD MLOAD DUP2 PUSH1 0x7 ADD PUSH1 0x0 PUSH2 0x100 EXP DUP2 SLOAD DUP2 PUSH1 0xFF MUL NOT AND SWAP1 DUP4 ISZERO ISZERO MUL OR SWAP1 SSTORE POP POP POP PUSH32 0x5BF34ED94988E5DCDC7D1FAAA54EB1D3B55F45D5F11457E235AFB21A8EBBE73C PUSH1 0x1 DUP1 DUP1 SLOAD SWAP1 POP PUSH2 0xA16 SWAP2 SWAP1 PUSH2 0xFC2 JUMP JUMPDEST DUP6 DUP9 DUP6 PUSH1 0x40 MLOAD PUSH2 0xA29 SWAP5 SWAP4 SWAP3 SWAP2 SWAP1 PUSH2 0x159D JUMP JUMPDEST PUSH1 0x40 MLOAD DUP1 SWAP2 SUB SWAP1 LOG1 POP POP POP POP POP POP JUMP JUMPDEST PUSH1 0x0 PUSH1 0x40 MLOAD SWAP1 POP SWAP1 JUMP JUMPDEST PUSH1 0x0 DUP1 REVERT JUMPDEST PUSH1 0x0 DUP1 REVERT JUMPDEST PUSH1 0x0 DUP2 SWAP1 POP SWAP2 SWAP1 POP JUMP JUMPDEST PUSH2 0xA60 DUP2 PUSH2 0xA4D JUMP JUMPDEST DUP2 EQ PUSH2 0xA6B JUMPI PUSH1 0x0 DUP1 REVERT JUMPDEST POP JUMP JUMPDEST PUSH1 0x0 DUP2 CALLDATALOAD SWAP1 POP PUSH2 0xA7D DUP2 PUSH2 0xA57 JUMP JUMPDEST SWAP3 SWAP2 POP POP JUMP JUMPDEST PUSH1 0x0 PUSH1 0x20 DUP3 DUP5 SUB SLT ISZERO PUSH2 0xA99 JUMPI PUSH2 0xA98 PUSH2 0xA43 JUMP JUMPDEST JUMPDEST PUSH1 0x0 PUSH2 0xAA7 DUP5 DUP3 DUP6 ADD PUSH2 0xA6E JUMP JUMPDEST SWAP2 POP POP SWAP3 SWAP2 POP POP JUMP JUMPDEST PUSH2 0xAB9 DUP2 PUSH2 0xA4D JUMP JUMPDEST DUP3 MSTORE POP POP JUMP JUMPDEST PUSH1 0x0 PUSH1 0x20 DUP3 ADD SWAP1 POP PUSH2 0xAD4 PUSH1 0x0 DUP4 ADD DUP5 PUSH2 0xAB0 JUMP JUMPDEST SWAP3 SWAP2 POP POP JUMP JUMPDEST PUSH1 0x0 PUSH20 0xFFFFFFFFFFFFFFFFFFFFFFFFFFFFFFFFFFFFFFFF DUP3 AND SWAP1 POP SWAP2 SWAP1 POP JUMP JUMPDEST PUSH1 0x0 PUSH2 0xB05 DUP3 PUSH2 0xADA JUMP JUMPDEST SWAP1 POP SWAP2 SWAP1 POP JUMP JUMPDEST PUSH2 0xB15 DUP2 PUSH2 0xAFA JUMP JUMPDEST DUP2 EQ PUSH2 0xB20 JUMPI PUSH1 0x0 DUP1 REVERT JUMPDEST POP JUMP JUMPDEST PUSH1 0x0 DUP2 CALLDATALOAD SWAP1 POP PUSH2 0xB32 DUP2 PUSH2 0xB0C JUMP JUMPDEST SWAP3 SWAP2 POP POP JUMP JUMPDEST PUSH1 0x0 PUSH1 0x20 DUP3 DUP5 SUB SLT ISZERO PUSH2 0xB4E JUMPI PUSH2 0xB4D PUSH2 0xA43 JUMP JUMPDEST JUMPDEST PUSH1 0x0 PUSH2 0xB5C DUP5 DUP3 DUP6 ADD PUSH2 0xB23 JUMP JUMPDEST SWAP2 POP POP SWAP3 SWAP2 POP POP JUMP JUMPDEST PUSH2 0xB6E DUP2 PUSH2 0xAFA JUMP JUMPDEST DUP3 MSTORE POP POP JUMP JUMPDEST PUSH1 0x0 DUP2 MLOAD SWAP1 POP SWAP2 SWAP1 POP JUMP JUMPDEST PUSH1 0x0 DUP3 DUP3 MSTORE PUSH1 0x20 DUP3 ADD SWAP1 POP SWAP3 SWAP2 POP POP JUMP JUMPDEST PUSH1 0x0 JUMPDEST DUP4 DUP2 LT ISZERO PUSH2 0xBAE JUMPI DUP1 DUP3 ADD MLOAD DUP2 DUP5 ADD MSTORE PUSH1 0x20 DUP2 ADD SWAP1 POP PUSH2 0xB93 JUMP JUMPDEST PUSH1 0x0 DUP5 DUP5 ADD MSTORE POP POP POP POP JUMP JUMPDEST PUSH1 0x0 PUSH1 0x1F NOT PUSH1 0x1F DUP4 ADD AND SWAP1 POP SWAP2 SWAP1 POP JUMP JUMPDEST PUSH1 0x0 PUSH2 0xBD6 DUP3 PUSH2 0xB74 JUMP JUMPDEST PUSH2 0xBE0 DUP2 DUP6 PUSH2 0xB7F JUMP JUMPDEST SWAP4 POP PUSH2 0xBF0 DUP2 DUP6 PUSH1 0x20 DUP7 ADD PUSH2 0xB90 JUMP JUMPDEST PUSH2 0xBF9 DUP2 PUSH2 0xBBA JUMP JUMPDEST DUP5 ADD SWAP2 POP POP SWAP3 SWAP2 POP POP JUMP JUMPDEST PUSH1 0x0 DUP2 ISZERO ISZERO SWAP1 POP SWAP2 SWAP1 POP JUMP JUMPDEST PUSH2 0xC19 DUP2 PUSH2 0xC04 JUMP JUMPDEST DUP3 MSTORE POP POP JUMP JUMPDEST PUSH1 0x0 PUSH2 0x100 DUP3 ADD SWAP1 POP PUSH2 0xC35 PUSH1 0x0 DUP4 ADD DUP12 PUSH2 0xB65 JUMP JUMPDEST PUSH2 0xC42 PUSH1 0x20 DUP4 ADD DUP11 PUSH2 0xAB0 JUMP JUMPDEST PUSH2 0xC4F PUSH1 0x40 DUP4 ADD DUP10 PUSH2 0xAB0 JUMP JUMPDEST PUSH2 0xC5C PUSH1 0x60 DUP4 ADD DUP9 PUSH2 0xAB0 JUMP JUMPDEST PUSH2 0xC69 PUSH1 0x80 DUP4 ADD DUP8 PUSH2 0xAB0 JUMP JUMPDEST PUSH2 0xC76 PUSH1 0xA0 DUP4 ADD DUP7 PUSH2 0xAB0 JUMP JUMPDEST DUP2 DUP2 SUB PUSH1 0xC0 DUP4 ADD MSTORE PUSH2 0xC88 DUP2 DUP6 PUSH2 0xBCB JUMP JUMPDEST SWAP1 POP PUSH2 0xC97 PUSH1 0xE0 DUP4 ADD DUP5 PUSH2 0xC10 JUMP JUMPDEST SWAP10 SWAP9 POP POP POP POP POP POP POP POP POP JUMP JUMPDEST PUSH1 0x0 PUSH2 0xCAF DUP3 PUSH2 0xADA JUMP JUMPDEST SWAP1 POP SWAP2 SWAP1 POP JUMP JUMPDEST PUSH2 0xCBF DUP2 PUSH2 0xCA4 JUMP JUMPDEST DUP3 MSTORE POP POP JUMP JUMPDEST PUSH1 0x0 PUSH1 0x20 DUP3 ADD SWAP1 POP PUSH2 0xCDA PUSH1 0x0 DUP4 ADD DUP5 PUSH2 0xCB6 JUMP JUMPDEST SWAP3 SWAP2 POP POP JUMP JUMPDEST PUSH1 0x0 DUP1 REVERT JUMPDEST PUSH1 0x0 DUP1 REVERT JUMPDEST PUSH32 0x4E487B7100000000000000000000000000000000000000000000000000000000 PUSH1 0x0 MSTORE PUSH1 0x41 PUSH1 0x4 MSTORE PUSH1 0x24 PUSH1 0x0 REVERT JUMPDEST PUSH2 0xD22 DUP3 PUSH2 0xBBA JUMP JUMPDEST DUP2 ADD DUP2 DUP2 LT PUSH8 0xFFFFFFFFFFFFFFFF DUP3 GT OR ISZERO PUSH2 0xD41 JUMPI PUSH2 0xD40 PUSH2 0xCEA JUMP JUMPDEST JUMPDEST DUP1 PUSH1 0x40 MSTORE POP POP POP JUMP JUMPDEST PUSH1 0x0 PUSH2 0xD54 PUSH2 0xA39 JUMP JUMPDEST SWAP1 POP PUSH2 0xD60 DUP3 DUP3 PUSH2 0xD19 JUMP JUMPDEST SWAP2 SWAP1 POP JUMP JUMPDEST PUSH1 0x0 PUSH8 0xFFFFFFFFFFFFFFFF DUP3 GT ISZERO PUSH2 0xD80 JUMPI PUSH2 0xD7F PUSH2 0xCEA JUMP JUMPDEST JUMPDEST PUSH2 0xD89 DUP3 PUSH2 0xBBA JUMP JUMPDEST SWAP1 POP PUSH1 0x20 DUP2 ADD SWAP1 POP SWAP2 SWAP1 POP JUMP JUMPDEST DUP3 DUP2 DUP4 CALLDATACOPY PUSH1 0x0 DUP4 DUP4 ADD MSTORE POP POP POP JUMP JUMPDEST PUSH1 0x0 PUSH2 0xDB8 PUSH2 0xDB3 DUP5 PUSH2 0xD65 JUMP JUMPDEST PUSH2 0xD4A JUMP JUMPDEST SWAP1 POP DUP3 DUP2 MSTORE PUSH1 0x20 DUP2 ADD DUP5 DUP5 DUP5 ADD GT ISZERO PUSH2 0xDD4 JUMPI PUSH2 0xDD3 PUSH2 0xCE5 JUMP JUMPDEST JUMPDEST PUSH2 0xDDF DUP5 DUP3 DUP6 PUSH2 0xD96 JUMP JUMPDEST POP SWAP4 SWAP3 POP POP POP JUMP JUMPDEST PUSH1 0x0 DUP3 PUSH1 0x1F DUP4 ADD SLT PUSH2 0xDFC JUMPI PUSH2 0xDFB PUSH2 0xCE0 JUMP JUMPDEST JUMPDEST DUP2 CALLDATALOAD PUSH2 0xE0C DUP5 DUP3 PUSH1 0x20 DUP7 ADD PUSH2 0xDA5 JUMP JUMPDEST SWAP2 POP POP SWAP3 SWAP2 POP POP JUMP JUMPDEST PUSH1 0x0 DUP1 PUSH1 0x0 DUP1 PUSH1 0x80 DUP6 DUP8 SUB SLT ISZERO PUSH2 0xE2F JUMPI PUSH2 0xE2E PUSH2 0xA43 JUMP JUMPDEST JUMPDEST PUSH1 0x0 PUSH2 0xE3D DUP8 DUP3 DUP9 ADD PUSH2 0xA6E JUMP JUMPDEST SWAP5 POP POP PUSH1 0x20 PUSH2 0xE4E DUP8 DUP3 DUP9 ADD PUSH2 0xA6E JUMP JUMPDEST SWAP4 POP POP PUSH1 0x40 DUP6 ADD CALLDATALOAD PUSH8 0xFFFFFFFFFFFFFFFF DUP2 GT ISZERO PUSH2 0xE6F JUMPI PUSH2 0xE6E PUSH2 0xA48 JUMP JUMPDEST JUMPDEST PUSH2 0xE7B DUP8 DUP3 DUP9 ADD PUSH2 0xDE7 JUMP JUMPDEST SWAP3 POP POP PUSH1 0x60 PUSH2 0xE8C DUP8 DUP3 DUP9 ADD PUSH2 0xA6E JUMP JUMPDEST SWAP2 POP POP SWAP3 SWAP6 SWAP2 SWAP5 POP SWAP3 POP JUMP JUMPDEST PUSH32 0x4E487B7100000000000000000000000000000000000000000000000000000000 PUSH1 0x0 MSTORE PUSH1 0x32 PUSH1 0x4 MSTORE PUSH1 0x24 PUSH1 0x0 REVERT JUMPDEST PUSH32 0x4E487B7100000000000000000000000000000000000000000000000000000000 PUSH1 0x0 MSTORE PUSH1 0x22 PUSH1 0x4 MSTORE PUSH1 0x24 PUSH1 0x0 REVERT JUMPDEST PUSH1 0x0 PUSH1 0x2 DUP3 DIV SWAP1 POP PUSH1 0x1 DUP3 AND DUP1 PUSH2 0xF0E JUMPI PUSH1 0x7F DUP3 AND SWAP2 POP JUMPDEST PUSH1 0x20 DUP3 LT DUP2 SUB PUSH2 0xF21 JUMPI PUSH2 0xF20 PUSH2 0xEC7 JUMP JUMPDEST JUMPDEST POP SWAP2 SWAP1 POP JUMP JUMPDEST PUSH32 0x73746F7070656421000000000000000000000000000000000000000000000000 PUSH1 0x0 DUP3 ADD MSTORE POP JUMP JUMPDEST PUSH1 0x0 PUSH2 0xF5D PUSH1 0x8 DUP4 PUSH2 0xB7F JUMP JUMPDEST SWAP2 POP PUSH2 0xF68 DUP3 PUSH2 0xF27 JUMP JUMPDEST PUSH1 0x20 DUP3 ADD SWAP1 POP SWAP2 SWAP1 POP JUMP JUMPDEST PUSH1 0x0 PUSH1 0x20 DUP3 ADD SWAP1 POP DUP2 DUP2 SUB PUSH1 0x0 DUP4 ADD MSTORE PUSH2 0xF8C DUP2 PUSH2 0xF50 JUMP JUMPDEST SWAP1 POP SWAP2 SWAP1 POP JUMP JUMPDEST PUSH32 0x4E487B7100000000000000000000000000000000000000000000000000000000 PUSH1 0x0 MSTORE PUSH1 0x11 PUSH1 0x4 MSTORE PUSH1 0x24 PUSH1 0x0 REVERT JUMPDEST PUSH1 0x0 PUSH2 0xFCD DUP3 PUSH2 0xA4D JUMP JUMPDEST SWAP2 POP PUSH2 0xFD8 DUP4 PUSH2 0xA4D JUMP JUMPDEST SWAP3 POP DUP3 DUP3 SUB SWAP1 POP DUP2 DUP2 GT ISZERO PUSH2 0xFF0 JUMPI PUSH2 0xFEF PUSH2 0xF93 JUMP JUMPDEST JUMPDEST SWAP3 SWAP2 POP POP JUMP JUMPDEST PUSH1 0x0 PUSH2 0x1001 DUP3 PUSH2 0xA4D JUMP JUMPDEST SWAP2 POP PUSH2 0x100C DUP4 PUSH2 0xA4D JUMP JUMPDEST SWAP3 POP DUP3 DUP3 MUL PUSH2 0x101A DUP2 PUSH2 0xA4D JUMP JUMPDEST SWAP2 POP DUP3 DUP3 DIV DUP5 EQ DUP4 ISZERO OR PUSH2 0x1031 JUMPI PUSH2 0x1030 PUSH2 0xF93 JUMP JUMPDEST JUMPDEST POP SWAP3 SWAP2 POP POP JUMP JUMPDEST PUSH32 0x796F7520617265206E6F7420616E206F776E6572210000000000000000000000 PUSH1 0x0 DUP3 ADD MSTORE POP JUMP JUMPDEST PUSH1 0x0 PUSH2 0x106E PUSH1 0x15 DUP4 PUSH2 0xB7F JUMP JUMPDEST SWAP2 POP PUSH2 0x1079 DUP3 PUSH2 0x1038 JUMP JUMPDEST PUSH1 0x20 DUP3 ADD SWAP1 POP SWAP2 SWAP1 POP JUMP JUMPDEST PUSH1 0x0 PUSH1 0x20 DUP3 ADD SWAP1 POP DUP2 DUP2 SUB PUSH1 0x0 DUP4 ADD MSTORE PUSH2 0x109D DUP2 PUSH2 0x1061 JUMP JUMPDEST SWAP1 POP SWAP2 SWAP1 POP JUMP JUMPDEST PUSH32 0x696E636F72726563742061646472657373210000000000000000000000000000 PUSH1 0x0 DUP3 ADD MSTORE POP JUMP JUMPDEST PUSH1 0x0 PUSH2 0x10DA PUSH1 0x12 DUP4 PUSH2 0xB7F JUMP JUMPDEST SWAP2 POP PUSH2 0x10E5 DUP3 PUSH2 0x10A4 JUMP JUMPDEST PUSH1 0x20 DUP3 ADD SWAP1 POP SWAP2 SWAP1 POP JUMP JUMPDEST PUSH1 0x0 PUSH1 0x20 DUP3 ADD SWAP1 POP DUP2 DUP2 SUB PUSH1 0x0 DUP4 ADD MSTORE PUSH2 0x1109 DUP2 PUSH2 0x10CD JUMP JUMPDEST SWAP1 POP SWAP2 SWAP1 POP JUMP JUMPDEST PUSH32 0x656E646564210000000000000000000000000000000000000000000000000000 PUSH1 0x0 DUP3 ADD MSTORE POP JUMP JUMPDEST PUSH1 0x0 PUSH2 0x1146 PUSH1 0x6 DUP4 PUSH2 0xB7F JUMP JUMPDEST SWAP2 POP PUSH2 0x1151 DUP3 PUSH2 0x1110 JUMP JUMPDEST PUSH1 0x20 DUP3 ADD SWAP1 POP SWAP2 SWAP1 POP JUMP JUMPDEST PUSH1 0x0 PUSH1 0x20 DUP3 ADD SWAP1 POP DUP2 DUP2 SUB PUSH1 0x0 DUP4 ADD MSTORE PUSH2 0x1175 DUP2 PUSH2 0x1139 JUMP JUMPDEST SWAP1 POP SWAP2 SWAP1 POP JUMP JUMPDEST PUSH32 0x6E6F7420656E6F7567682066756E647321000000000000000000000000000000 PUSH1 0x0 DUP3 ADD MSTORE POP JUMP JUMPDEST PUSH1 0x0 PUSH2 0x11B2 PUSH1 0x11 DUP4 PUSH2 0xB7F JUMP JUMPDEST SWAP2 POP PUSH2 0x11BD DUP3 PUSH2 0x117C JUMP JUMPDEST PUSH1 0x20 DUP3 ADD SWAP1 POP SWAP2 SWAP1 POP JUMP JUMPDEST PUSH1 0x0 PUSH1 0x20 DUP3 ADD SWAP1 POP DUP2 DUP2 SUB PUSH1 0x0 DUP4 ADD MSTORE PUSH2 0x11E1 DUP2 PUSH2 0x11A5 JUMP JUMPDEST SWAP1 POP SWAP2 SWAP1 POP JUMP JUMPDEST PUSH32 0x4E487B7100000000000000000000000000000000000000000000000000000000 PUSH1 0x0 MSTORE PUSH1 0x12 PUSH1 0x4 MSTORE PUSH1 0x24 PUSH1 0x0 REVERT JUMPDEST PUSH1 0x0 PUSH2 0x1222 DUP3 PUSH2 0xA4D JUMP JUMPDEST SWAP2 POP PUSH2 0x122D DUP4 PUSH2 0xA4D JUMP JUMPDEST SWAP3 POP DUP3 PUSH2 0x123D JUMPI PUSH2 0x123C PUSH2 0x11E8 JUMP JUMPDEST JUMPDEST DUP3 DUP3 DIV SWAP1 POP SWAP3 SWAP2 POP POP JUMP JUMPDEST PUSH1 0x0 PUSH1 0x60 DUP3 ADD SWAP1 POP PUSH2 0x125D PUSH1 0x0 DUP4 ADD DUP7 PUSH2 0xAB0 JUMP JUMPDEST PUSH2 0x126A PUSH1 0x20 DUP4 ADD DUP6 PUSH2 0xAB0 JUMP JUMPDEST PUSH2 0x1277 PUSH1 0x40 DUP4 ADD DUP5 PUSH2 0xCB6 JUMP JUMPDEST SWAP5 SWAP4 POP POP POP POP JUMP JUMPDEST PUSH32 0x696E636F7272656374207374617274696E672070726963650000000000000000 PUSH1 0x0 DUP3 ADD MSTORE POP JUMP JUMPDEST PUSH1 0x0 PUSH2 0x12B5 PUSH1 0x18 DUP4 PUSH2 0xB7F JUMP JUMPDEST SWAP2 POP PUSH2 0x12C0 DUP3 PUSH2 0x127F JUMP JUMPDEST PUSH1 0x20 DUP3 ADD SWAP1 POP SWAP2 SWAP1 POP JUMP JUMPDEST PUSH1 0x0 PUSH1 0x20 DUP3 ADD SWAP1 POP DUP2 DUP2 SUB PUSH1 0x0 DUP4 ADD MSTORE PUSH2 0x12E4 DUP2 PUSH2 0x12A8 JUMP JUMPDEST SWAP1 POP SWAP2 SWAP1 POP JUMP JUMPDEST PUSH1 0x0 PUSH2 0x12F6 DUP3 PUSH2 0xA4D JUMP JUMPDEST SWAP2 POP PUSH2 0x1301 DUP4 PUSH2 0xA4D JUMP JUMPDEST SWAP3 POP DUP3 DUP3 ADD SWAP1 POP DUP1 DUP3 GT ISZERO PUSH2 0x1319 JUMPI PUSH2 0x1318 PUSH2 0xF93 JUMP JUMPDEST JUMPDEST SWAP3 SWAP2 POP POP JUMP JUMPDEST PUSH1 0x0 DUP2 SWAP1 POP DUP2 PUSH1 0x0 MSTORE PUSH1 0x20 PUSH1 0x0 KECCAK256 SWAP1 POP SWAP2 SWAP1 POP JUMP JUMPDEST PUSH1 0x0 PUSH1 0x20 PUSH1 0x1F DUP4 ADD DIV SWAP1 POP SWAP2 SWAP1 POP JUMP JUMPDEST PUSH1 0x0 DUP3 DUP3 SHL SWAP1 POP SWAP3 SWAP2 POP POP JUMP JUMPDEST PUSH1 0x0 PUSH1 0x8 DUP4 MUL PUSH2 0x1381 PUSH32 0xFFFFFFFFFFFFFFFFFFFFFFFFFFFFFFFFFFFFFFFFFFFFFFFFFFFFFFFFFFFFFFFF DUP3 PUSH2 0x1344 JUMP JUMPDEST PUSH2 0x138B DUP7 DUP4 PUSH2 0x1344 JUMP JUMPDEST SWAP6 POP DUP1 NOT DUP5 AND SWAP4 POP DUP1 DUP7 AND DUP5 OR SWAP3 POP POP POP SWAP4 SWAP3 POP POP POP JUMP JUMPDEST PUSH1 0x0 DUP2 SWAP1 POP SWAP2 SWAP1 POP JUMP JUMPDEST PUSH1 0x0 PUSH2 0x13C8 PUSH2 0x13C3 PUSH2 0x13BE DUP5 PUSH2 0xA4D JUMP JUMPDEST PUSH2 0x13A3 JUMP JUMPDEST PUSH2 0xA4D JUMP JUMPDEST SWAP1 POP SWAP2 SWAP1 POP JUMP JUMPDEST PUSH1 0x0 DUP2 SWAP1 POP SWAP2 SWAP1 POP JUMP JUMPDEST PUSH2 0x13E2 DUP4 PUSH2 0x13AD JUMP JUMPDEST PUSH2 0x13F6 PUSH2 0x13EE DUP3 PUSH2 0x13CF JUMP JUMPDEST DUP5 DUP5 SLOAD PUSH2 0x1351 JUMP JUMPDEST DUP3 SSTORE POP POP POP POP JUMP JUMPDEST PUSH1 0x0 SWAP1 JUMP JUMPDEST PUSH2 0x140B PUSH2 0x13FE JUMP JUMPDEST PUSH2 0x1416 DUP2 DUP5 DUP5 PUSH2 0x13D9 JUMP JUMPDEST POP POP POP JUMP JUMPDEST JUMPDEST DUP2 DUP2 LT ISZERO PUSH2 0x143A JUMPI PUSH2 0x142F PUSH1 0x0 DUP3 PUSH2 0x1403 JUMP JUMPDEST PUSH1 0x1 DUP2 ADD SWAP1 POP PUSH2 0x141C JUMP JUMPDEST POP POP JUMP JUMPDEST PUSH1 0x1F DUP3 GT ISZERO PUSH2 0x147F JUMPI PUSH2 0x1450 DUP2 PUSH2 0x131F JUMP JUMPDEST PUSH2 0x1459 DUP5 PUSH2 0x1334 JUMP JUMPDEST DUP2 ADD PUSH1 0x20 DUP6 LT ISZERO PUSH2 0x1468 JUMPI DUP2 SWAP1 POP JUMPDEST PUSH2 0x147C PUSH2 0x1474 DUP6 PUSH2 0x1334 JUMP JUMPDEST DUP4 ADD DUP3 PUSH2 0x141B JUMP JUMPDEST POP POP JUMPDEST POP POP POP JUMP JUMPDEST PUSH1 0x0 DUP3 DUP3 SHR SWAP1 POP SWAP3 SWAP2 POP POP JUMP JUMPDEST PUSH1 0x0 PUSH2 0x14A2 PUSH1 0x0 NOT DUP5 PUSH1 0x8 MUL PUSH2 0x1484 JUMP JUMPDEST NOT DUP1 DUP4 AND SWAP2 POP POP SWAP3 SWAP2 POP POP JUMP JUMPDEST PUSH1 0x0 PUSH2 0x14BB DUP4 DUP4 PUSH2 0x1491 JUMP JUMPDEST SWAP2 POP DUP3 PUSH1 0x2 MUL DUP3 OR SWAP1 POP SWAP3 SWAP2 POP POP JUMP JUMPDEST PUSH2 0x14D4 DUP3 PUSH2 0xB74 JUMP JUMPDEST PUSH8 0xFFFFFFFFFFFFFFFF DUP2 GT ISZERO PUSH2 0x14ED JUMPI PUSH2 0x14EC PUSH2 0xCEA JUMP JUMPDEST JUMPDEST PUSH2 0x14F7 DUP3 SLOAD PUSH2 0xEF6 JUMP JUMPDEST PUSH2 0x1502 DUP3 DUP3 DUP6 PUSH2 0x143E JUMP JUMPDEST PUSH1 0x0 PUSH1 0x20 SWAP1 POP PUSH1 0x1F DUP4 GT PUSH1 0x1 DUP2 EQ PUSH2 0x1535 JUMPI PUSH1 0x0 DUP5 ISZERO PUSH2 0x1523 JUMPI DUP3 DUP8 ADD MLOAD SWAP1 POP JUMPDEST PUSH2 0x152D DUP6 DUP3 PUSH2 0x14AF JUMP JUMPDEST DUP7 SSTORE POP PUSH2 0x1595 JUMP JUMPDEST PUSH1 0x1F NOT DUP5 AND PUSH2 0x1543 DUP7 PUSH2 0x131F JUMP JUMPDEST PUSH1 0x0 JUMPDEST DUP3 DUP2 LT ISZERO PUSH2 0x156B JUMPI DUP5 DUP10 ADD MLOAD DUP3 SSTORE PUSH1 0x1 DUP3 ADD SWAP2 POP PUSH1 0x20 DUP6 ADD SWAP5 POP PUSH1 0x20 DUP2 ADD SWAP1 POP PUSH2 0x1546 JUMP JUMPDEST DUP7 DUP4 LT ISZERO PUSH2 0x1588 JUMPI DUP5 DUP10 ADD MLOAD PUSH2 0x1584 PUSH1 0x1F DUP10 AND DUP3 PUSH2 0x1491 JUMP JUMPDEST DUP4 SSTORE POP JUMPDEST PUSH1 0x1 PUSH1 0x2 DUP9 MUL ADD DUP9 SSTORE POP POP POP JUMPDEST POP POP POP POP POP POP JUMP JUMPDEST PUSH1 0x0 PUSH1 0x80 DUP3 ADD SWAP1 POP PUSH2 0x15B2 PUSH1 0x0 DUP4 ADD DUP8 PUSH2 0xAB0 JUMP JUMPDEST DUP2 DUP2 SUB PUSH1 0x20 DUP4 ADD MSTORE PUSH2 0x15C4 DUP2 DUP7 PUSH2 0xBCB JUMP JUMPDEST SWAP1 POP PUSH2 0x15D3 PUSH1 0x40 DUP4 ADD DUP6 PUSH2 0xAB0 JUMP JUMPDEST PUSH2 0x15E0 PUSH1 0x60 DUP4 ADD DUP5 PUSH2 0xAB0 JUMP JUMPDEST SWAP6 SWAP5 POP POP POP POP POP JUMP INVALID LOG2 PUSH5 0x6970667358 0x22 SLT KECCAK256 CREATE2 MSTORE 0xD1 0xDE 0xB4 STATICCALL 0xD7 LOG0 PUSH2 0xA02D PUSH23 0x4F14180943320EEB4079D10F261E53E2CAF4871D64736F PUSH13 0x63430008110033000000000000 "},"methodIdentifiers":{"auctions(uint256)":"571a26a0","buy(uint256)":"d96a094a","createAuction(uint256,uint256,string,uint256)":"e9835d15","getPriceFor(uint256)":"4534cd9c","owner()":"8da5cb5b","withdraw(address)":"51cff8d9"}}}}}