{
  "_format": "hh-sol-artifact-1",
  "contractName": "Demo",
  "sourceName": "contracts/Demo.sol",
  "abi": [
    {
      "inputs": [],
      "stateMutability": "nonpayable",
      "type": "constructor"
    },
    {
      "anonymous": false,
      "inputs": [
        {
          "indexed": true,
          "internalType": "address",
          "name": "_from",
          "type": "address"
        },
        {
          "indexed": false,
          "internalType": "uint256",
          "name": "_amount",
          "type": "uint256"
        },
        {
          "indexed": false,
          "internalType": "uint256",
          "name": "_timestamp",
          "type": "uint256"
        }
      ],
      "name": "Paid",
      "type": "event"
    },
    {
      "inputs": [],
      "name": "pay",
      "outputs": [],
      "stateMutability": "payable",
      "type": "function"
    },
    {
      "inputs": [
        {
          "internalType": "address payable",
          "name": "_to",
          "type": "address"
        }
      ],
      "name": "withdraw",
      "outputs": [],
      "stateMutability": "nonpayable",
      "type": "function"
    },
    {
      "stateMutability": "payable",
      "type": "receive"
    }
  ],
  "bytecode": "0x608060405234801561001057600080fd5b50336000806101000a81548173ffffffffffffffffffffffffffffffffffffffff021916908373ffffffffffffffffffffffffffffffffffffffff160217905550610400806100606000396000f3fe60806040526004361061002d5760003560e01c80631b9265b81461004157806351cff8d91461004b5761003c565b3661003c5761003a610074565b005b600080fd5b610049610074565b005b34801561005757600080fd5b50610072600480360381019061006d9190610272565b6100c6565b005b3373ffffffffffffffffffffffffffffffffffffffff167fdf9a51129930649214df58f542322c245372c6f2fa6fc3c9b40d927c597cd23034426040516100bc9291906102b8565b60405180910390a2565b8060008054906101000a900473ffffffffffffffffffffffffffffffffffffffff1673ffffffffffffffffffffffffffffffffffffffff163373ffffffffffffffffffffffffffffffffffffffff1614610155576040517f08c379a000000000000000000000000000000000000000000000000000000000815260040161014c9061033e565b60405180910390fd5b600073ffffffffffffffffffffffffffffffffffffffff168173ffffffffffffffffffffffffffffffffffffffff16036101c4576040517f08c379a00000000000000000000000000000000000000000000000000000000081526004016101bb906103aa565b60405180910390fd5b8173ffffffffffffffffffffffffffffffffffffffff166108fc479081150290604051600060405180830381858888f1935050505015801561020a573d6000803e3d6000fd5b505050565b600080fd5b600073ffffffffffffffffffffffffffffffffffffffff82169050919050565b600061023f82610214565b9050919050565b61024f81610234565b811461025a57600080fd5b50565b60008135905061026c81610246565b92915050565b6000602082840312156102885761028761020f565b5b60006102968482850161025d565b91505092915050565b6000819050919050565b6102b28161029f565b82525050565b60006040820190506102cd60008301856102a9565b6102da60208301846102a9565b9392505050565b600082825260208201905092915050565b7f796f7520617265206e6f7420616e206f776e6572210000000000000000000000600082015250565b60006103286015836102e1565b9150610333826102f2565b602082019050919050565b600060208201905081810360008301526103578161031b565b9050919050565b7f696e636f72726563742061646472657373210000000000000000000000000000600082015250565b60006103946012836102e1565b915061039f8261035e565b602082019050919050565b600060208201905081810360008301526103c381610387565b905091905056fea26469706673582212206d8cad7caa2a4f1ac4ca6be86dc59d6c9f1cd03758e2d3d01adf7d25ec96a44e64736f6c63430008110033",
  "linkReferences": {},
  "deployedLinkReferences": {}
}