{
  "_format": "hh-sol-artifact-1",
  "contractName": "Demo",
  "sourceName": "contracts/Demo.sol",
  "abi": [
    {
      "inputs": [
        {
          "internalType": "address",
          "name": "_logger",
          "type": "address"
        }
      ],
      "stateMutability": "nonpayable",
      "type": "constructor"
    },
    {
      "inputs": [
        {
          "internalType": "address",
          "name": "_from",
          "type": "address"
        },
        {
          "internalType": "uint256",
          "name": "_number",
          "type": "uint256"
        }
      ],
      "name": "payment",
      "outputs": [
        {
          "internalType": "uint256",
          "name": "",
          "type": "uint256"
        }
      ],
      "stateMutability": "view",
      "type": "function"
    },
    {
      "stateMutability": "payable",
      "type": "receive"
    }
  ],
  "bytecode": "0x608060405234801561001057600080fd5b50604051610465380380610465833981810160405281019061003291906100db565b806000806101000a81548173ffffffffffffffffffffffffffffffffffffffff021916908373ffffffffffffffffffffffffffffffffffffffff16021790555050610108565b600080fd5b600073ffffffffffffffffffffffffffffffffffffffff82169050919050565b60006100a88261007d565b9050919050565b6100b88161009d565b81146100c357600080fd5b50565b6000815190506100d5816100af565b92915050565b6000602082840312156100f1576100f0610078565b5b60006100ff848285016100c6565b91505092915050565b61034e806101176000396000f3fe6080604052600436106100225760003560e01c806367a09c23146100b7576100b2565b366100b25760008054906101000a900473ffffffffffffffffffffffffffffffffffffffff1673ffffffffffffffffffffffffffffffffffffffff16638309e8a833346040518363ffffffff1660e01b81526004016100829291906101f5565b600060405180830381600087803b15801561009c57600080fd5b505af11580156100b0573d6000803e3d6000fd5b005b600080fd5b3480156100c357600080fd5b506100de60048036038101906100d9919061027b565b6100f4565b6040516100eb91906102bb565b60405180910390f35b60008060009054906101000a900473ffffffffffffffffffffffffffffffffffffffff1673ffffffffffffffffffffffffffffffffffffffff1663b8a740e084846040518363ffffffff1660e01b81526004016101529291906101f5565b602060405180830381865afa15801561016f573d6000803e3d6000fd5b505050506040513d601f19601f8201168201806040525081019061019391906102eb565b905092915050565b600073ffffffffffffffffffffffffffffffffffffffff82169050919050565b60006101c68261019b565b9050919050565b6101d6816101bb565b82525050565b6000819050919050565b6101ef816101dc565b82525050565b600060408201905061020a60008301856101cd565b61021760208301846101e6565b9392505050565b600080fd5b61022c816101bb565b811461023757600080fd5b50565b60008135905061024981610223565b92915050565b610258816101dc565b811461026357600080fd5b50565b6000813590506102758161024f565b92915050565b600080604083850312156102925761029161021e565b5b60006102a08582860161023a565b92505060206102b185828601610266565b9150509250929050565b60006020820190506102d060008301846101e6565b92915050565b6000815190506102e58161024f565b92915050565b6000602082840312156103015761030061021e565b5b600061030f848285016102d6565b9150509291505056fea2646970667358221220b7541459fbb778fd1cfe4a746a69f0847cf7d4f6f842bb61dba69504960332fb64736f6c63430008110033",
  "linkReferences": {},
  "deployedLinkReferences": {}
}