{
  "_format": "hh-sol-artifact-1",
  "contractName": "MShop",
  "sourceName": "contracts/Erc.sol",
  "abi": [
    {
      "inputs": [],
      "stateMutability": "nonpayable",
      "type": "constructor"
    },
    {
      "anonymous": false,
      "inputs": [
        {
          "indexed": false,
          "internalType": "uint256",
          "name": "_amount",
          "type": "uint256"
        },
        {
          "indexed": true,
          "internalType": "address",
          "name": "_buyer",
          "type": "address"
        }
      ],
      "name": "Bought",
      "type": "event"
    },
    {
      "anonymous": false,
      "inputs": [
        {
          "indexed": false,
          "internalType": "uint256",
          "name": "_amount",
          "type": "uint256"
        },
        {
          "indexed": true,
          "internalType": "address",
          "name": "_seller",
          "type": "address"
        }
      ],
      "name": "Sold",
      "type": "event"
    },
    {
      "inputs": [],
      "name": "owner",
      "outputs": [
        {
          "internalType": "address payable",
          "name": "",
          "type": "address"
        }
      ],
      "stateMutability": "view",
      "type": "function"
    },
    {
      "inputs": [
        {
          "internalType": "uint256",
          "name": "_amountToSell",
          "type": "uint256"
        }
      ],
      "name": "sell",
      "outputs": [],
      "stateMutability": "nonpayable",
      "type": "function"
    },
    {
      "inputs": [],
      "name": "token",
      "outputs": [
        {
          "internalType": "contract IERC20",
          "name": "",
          "type": "address"
        }
      ],
      "stateMutability": "view",
      "type": "function"
    },
    {
      "inputs": [],
      "name": "tokenBalance",
      "outputs": [
        {
          "internalType": "uint256",
          "name": "",
          "type": "uint256"
        }
      ],
      "stateMutability": "view",
      "type": "function"
    },
    {
      "inputs": [],
      "name": "withdraw",
      "outputs": [],
      "stateMutability": "nonpayable",
      "type": "function"
    },
    {
      "stateMutability": "payable",
      "type": "receive"
    }
  ],
  "bytecode": "0x608060405234801561001057600080fd5b503060405161001e906100ca565b6100289190610118565b604051809103906000f080158015610044573d6000803e3d6000fd5b506000806101000a81548173ffffffffffffffffffffffffffffffffffffffff021916908373ffffffffffffffffffffffffffffffffffffffff16021790555033600160006101000a81548173ffffffffffffffffffffffffffffffffffffffff021916908373ffffffffffffffffffffffffffffffffffffffff160217905550610133565b61179f80610d7783390190565b600073ffffffffffffffffffffffffffffffffffffffff82169050919050565b6000610102826100d7565b9050919050565b610112816100f7565b82525050565b600060208201905061012d6000830184610109565b92915050565b610c35806101426000396000f3fe60806040526004361061004e5760003560e01c80633ccfd60b146101c75780638da5cb5b146101de5780639e1a4d1914610209578063e4849b3214610234578063fc0c546a1461025d576101c2565b366101c25760003490506000811161009b576040517f08c379a0000000000000000000000000000000000000000000000000000000008152600401610092906107c0565b60405180910390fd5b806100a4610288565b10156100e5576040517f08c379a00000000000000000000000000000000000000000000000000000000081526004016100dc9061082c565b60405180910390fd5b60008054906101000a900473ffffffffffffffffffffffffffffffffffffffff1673ffffffffffffffffffffffffffffffffffffffff1663a9059cbb33836040518363ffffffff1660e01b81526004016101409291906108a6565b600060405180830381600087803b15801561015a57600080fd5b505af115801561016e573d6000803e3d6000fd5b505050503373ffffffffffffffffffffffffffffffffffffffff167fc54c8cc1c7525b424ec71b685c00d9355581a280488018c22005332ceb2fd406826040516101b891906108cf565b60405180910390a2005b600080fd5b3480156101d357600080fd5b506101dc61032a565b005b3480156101ea57600080fd5b506101f3610425565b604051610200919061090b565b60405180910390f35b34801561021557600080fd5b5061021e610288565b60405161022b91906108cf565b60405180910390f35b34801561024057600080fd5b5061025b60048036038101906102569190610957565b61044b565b005b34801561026957600080fd5b5061027261073f565b60405161027f91906109e3565b60405180910390f35b60008060009054906101000a900473ffffffffffffffffffffffffffffffffffffffff1673ffffffffffffffffffffffffffffffffffffffff166370a08231306040518263ffffffff1660e01b81526004016102e491906109fe565b602060405180830381865afa158015610301573d6000803e3d6000fd5b505050506040513d601f19601f820116820180604052508101906103259190610a2e565b905090565b600160009054906101000a900473ffffffffffffffffffffffffffffffffffffffff1673ffffffffffffffffffffffffffffffffffffffff163373ffffffffffffffffffffffffffffffffffffffff16146103ba576040517f08c379a00000000000000000000000000000000000000000000000000000000081526004016103b190610aa7565b60405180910390fd5b600160009054906101000a900473ffffffffffffffffffffffffffffffffffffffff1673ffffffffffffffffffffffffffffffffffffffff166108fc479081150290604051600060405180830381858888f19350505050158015610422573d6000803e3d6000fd5b50565b600160009054906101000a900473ffffffffffffffffffffffffffffffffffffffff1681565b6000811180156104f457508060008054906101000a900473ffffffffffffffffffffffffffffffffffffffff1673ffffffffffffffffffffffffffffffffffffffff166370a08231336040518263ffffffff1660e01b81526004016104b091906109fe565b602060405180830381865afa1580156104cd573d6000803e3d6000fd5b505050506040513d601f19601f820116820180604052508101906104f19190610a2e565b10155b610533576040517f08c379a000000000000000000000000000000000000000000000000000000000815260040161052a90610b13565b60405180910390fd5b60008060009054906101000a900473ffffffffffffffffffffffffffffffffffffffff1673ffffffffffffffffffffffffffffffffffffffff1663dd62ed3e33306040518363ffffffff1660e01b8152600401610591929190610b33565b602060405180830381865afa1580156105ae573d6000803e3d6000fd5b505050506040513d601f19601f820116820180604052508101906105d29190610a2e565b905081811015610617576040517f08c379a000000000000000000000000000000000000000000000000000000000815260040161060e90610ba8565b60405180910390fd5b60008054906101000a900473ffffffffffffffffffffffffffffffffffffffff1673ffffffffffffffffffffffffffffffffffffffff166323b872dd3330856040518463ffffffff1660e01b815260040161067493929190610bc8565b600060405180830381600087803b15801561068e57600080fd5b505af11580156106a2573d6000803e3d6000fd5b505050503373ffffffffffffffffffffffffffffffffffffffff166108fc839081150290604051600060405180830381858888f193505050501580156106ec573d6000803e3d6000fd5b503373ffffffffffffffffffffffffffffffffffffffff167fdc0971a41bd3cc3dec88e610438b1a9f0752975bbd80f195baf7b766c0aec03e8360405161073391906108cf565b60405180910390a25050565b60008054906101000a900473ffffffffffffffffffffffffffffffffffffffff1681565b600082825260208201905092915050565b7f6e6f7420656e6f7567682066756e647321000000000000000000000000000000600082015250565b60006107aa601183610763565b91506107b582610774565b602082019050919050565b600060208201905081810360008301526107d98161079d565b9050919050565b7f6e6f7420656e6f75676820746f6b656e73210000000000000000000000000000600082015250565b6000610816601283610763565b9150610821826107e0565b602082019050919050565b6000602082019050818103600083015261084581610809565b9050919050565b600073ffffffffffffffffffffffffffffffffffffffff82169050919050565b60006108778261084c565b9050919050565b6108878161086c565b82525050565b6000819050919050565b6108a08161088d565b82525050565b60006040820190506108bb600083018561087e565b6108c86020830184610897565b9392505050565b60006020820190506108e46000830184610897565b92915050565b60006108f58261084c565b9050919050565b610905816108ea565b82525050565b600060208201905061092060008301846108fc565b92915050565b600080fd5b6109348161088d565b811461093f57600080fd5b50565b6000813590506109518161092b565b92915050565b60006020828403121561096d5761096c610926565b5b600061097b84828501610942565b91505092915050565b6000819050919050565b60006109a96109a461099f8461084c565b610984565b61084c565b9050919050565b60006109bb8261098e565b9050919050565b60006109cd826109b0565b9050919050565b6109dd816109c2565b82525050565b60006020820190506109f860008301846109d4565b92915050565b6000602082019050610a13600083018461087e565b92915050565b600081519050610a288161092b565b92915050565b600060208284031215610a4457610a43610926565b5b6000610a5284828501610a19565b91505092915050565b7f6e6f7420616e206f776e65722100000000000000000000000000000000000000600082015250565b6000610a91600d83610763565b9150610a9c82610a5b565b602082019050919050565b60006020820190508181036000830152610ac081610a84565b9050919050565b7f696e636f727265637420616d6f756e7421000000000000000000000000000000600082015250565b6000610afd601183610763565b9150610b0882610ac7565b602082019050919050565b60006020820190508181036000830152610b2c81610af0565b9050919050565b6000604082019050610b48600083018561087e565b610b55602083018461087e565b9392505050565b7f636865636b20616c6c6f77616e63652100000000000000000000000000000000600082015250565b6000610b92601083610763565b9150610b9d82610b5c565b602082019050919050565b60006020820190508181036000830152610bc181610b85565b9050919050565b6000606082019050610bdd600083018661087e565b610bea602083018561087e565b610bf76040830184610897565b94935050505056fea2646970667358221220427d873f262ff669671d68b84359855ae1f05b8d89561eaf6872c15743097ded64736f6c6343000811003360806040523480156200001157600080fd5b506040516200179f3803806200179f83398181016040528101906200003791906200031c565b6040518060400160405280600881526020017f4d4353546f6b656e0000000000000000000000000000000000000000000000008152506040518060400160405280600381526020017f4d435400000000000000000000000000000000000000000000000000000000008152506014838360049081620000b79190620005c8565b508260059081620000c99190620005c8565b5033600160006101000a81548173ffffffffffffffffffffffffffffffffffffffff021916908373ffffffffffffffffffffffffffffffffffffffff1602179055506200011d82826200012860201b60201c565b5050505050620007ca565b600160009054906101000a900473ffffffffffffffffffffffffffffffffffffffff1673ffffffffffffffffffffffffffffffffffffffff163373ffffffffffffffffffffffffffffffffffffffff1614620001bb576040517f08c379a0000000000000000000000000000000000000000000000000000000008152600401620001b29062000710565b60405180910390fd5b620001cf60008284620002ad60201b60201c565b81600260008373ffffffffffffffffffffffffffffffffffffffff1673ffffffffffffffffffffffffffffffffffffffff168152602001908152602001600020600082825462000220919062000761565b92505081905550816000808282546200023a919062000761565b925050819055508073ffffffffffffffffffffffffffffffffffffffff16600073ffffffffffffffffffffffffffffffffffffffff167fddf252ad1be2c89b69c2b068fc378daa952ba7f163c4a11628f55a4df523b3ef84604051620002a19190620007ad565b60405180910390a35050565b505050565b600080fd5b600073ffffffffffffffffffffffffffffffffffffffff82169050919050565b6000620002e482620002b7565b9050919050565b620002f681620002d7565b81146200030257600080fd5b50565b6000815190506200031681620002eb565b92915050565b600060208284031215620003355762000334620002b2565b5b6000620003458482850162000305565b91505092915050565b600081519050919050565b7f4e487b7100000000000000000000000000000000000000000000000000000000600052604160045260246000fd5b7f4e487b7100000000000000000000000000000000000000000000000000000000600052602260045260246000fd5b60006002820490506001821680620003d057607f821691505b602082108103620003e657620003e562000388565b5b50919050565b60008190508160005260206000209050919050565b60006020601f8301049050919050565b600082821b905092915050565b600060088302620004507fffffffffffffffffffffffffffffffffffffffffffffffffffffffffffffffff8262000411565b6200045c868362000411565b95508019841693508086168417925050509392505050565b6000819050919050565b6000819050919050565b6000620004a9620004a36200049d8462000474565b6200047e565b62000474565b9050919050565b6000819050919050565b620004c58362000488565b620004dd620004d482620004b0565b8484546200041e565b825550505050565b600090565b620004f4620004e5565b62000501818484620004ba565b505050565b5b8181101562000529576200051d600082620004ea565b60018101905062000507565b5050565b601f82111562000578576200054281620003ec565b6200054d8462000401565b810160208510156200055d578190505b620005756200056c8562000401565b83018262000506565b50505b505050565b600082821c905092915050565b60006200059d600019846008026200057d565b1980831691505092915050565b6000620005b883836200058a565b9150826002028217905092915050565b620005d3826200034e565b67ffffffffffffffff811115620005ef57620005ee62000359565b5b620005fb8254620003b7565b620006088282856200052d565b600060209050601f8311600181146200064057600084156200062b578287015190505b620006378582620005aa565b865550620006a7565b601f1984166200065086620003ec565b60005b828110156200067a5784890151825560018201915060208501945060208101905062000653565b868310156200069a578489015162000696601f8916826200058a565b8355505b6001600288020188555050505b505050505050565b600082825260208201905092915050565b7f6e6f7420616e206f776e65722100000000000000000000000000000000000000600082015250565b6000620006f8600d83620006af565b91506200070582620006c0565b602082019050919050565b600060208201905081810360008301526200072b81620006e9565b9050919050565b7f4e487b7100000000000000000000000000000000000000000000000000000000600052601160045260246000fd5b60006200076e8262000474565b91506200077b8362000474565b925082820190508082111562000796576200079562000732565b5b92915050565b620007a78162000474565b82525050565b6000602082019050620007c460008301846200079c565b92915050565b610fc580620007da6000396000f3fe608060405234801561001057600080fd5b50600436106100a95760003560e01c806370a082311161007157806370a082311461014057806394bf804d1461017057806395d89b411461018c5780639dc29fac146101aa578063a9059cbb146101c6578063dd62ed3e146101e2576100a9565b806306fdde03146100ae578063095ea7b3146100cc57806318160ddd146100e857806323b872dd14610106578063313ce56714610122575b600080fd5b6100b6610212565b6040516100c39190610b9b565b60405180910390f35b6100e660048036038101906100e19190610c56565b6102a4565b005b6100f06102b3565b6040516100fd9190610ca5565b60405180910390f35b610120600480360381019061011b9190610cc0565b6102bc565b005b61012a6104bf565b6040516101379190610ca5565b60405180910390f35b61015a60048036038101906101559190610d13565b6104c8565b6040516101679190610ca5565b60405180910390f35b61018a60048036038101906101859190610d40565b610511565b005b610194610685565b6040516101a19190610b9b565b60405180910390f35b6101c460048036038101906101bf9190610c56565b610717565b005b6101e060048036038101906101db9190610c56565b610825565b005b6101fc60048036038101906101f79190610d80565b610994565b6040516102099190610ca5565b60405180910390f35b60606004805461022190610def565b80601f016020809104026020016040519081016040528092919081815260200182805461024d90610def565b801561029a5780601f1061026f5761010080835404028352916020019161029a565b820191906000526020600020905b81548152906001019060200180831161027d57829003601f168201915b5050505050905090565b6102af338383610a1b565b5050565b60008054905090565b8281806102c8836104c8565b1015610309576040517f08c379a000000000000000000000000000000000000000000000000000000000815260040161030090610e6c565b60405180910390fd5b610314858585610b06565b82600360008773ffffffffffffffffffffffffffffffffffffffff1673ffffffffffffffffffffffffffffffffffffffff16815260200190815260200160002060008673ffffffffffffffffffffffffffffffffffffffff1673ffffffffffffffffffffffffffffffffffffffff16815260200190815260200160002060008282546103a09190610ebb565b9250508190555082600260008773ffffffffffffffffffffffffffffffffffffffff1673ffffffffffffffffffffffffffffffffffffffff16815260200190815260200160002060008282546103f69190610ebb565b9250508190555082600260008673ffffffffffffffffffffffffffffffffffffffff1673ffffffffffffffffffffffffffffffffffffffff168152602001908152602001600020600082825461044c9190610eef565b925050819055508373ffffffffffffffffffffffffffffffffffffffff168573ffffffffffffffffffffffffffffffffffffffff167fddf252ad1be2c89b69c2b068fc378daa952ba7f163c4a11628f55a4df523b3ef856040516104b09190610ca5565b60405180910390a35050505050565b60006012905090565b6000600260008373ffffffffffffffffffffffffffffffffffffffff1673ffffffffffffffffffffffffffffffffffffffff168152602001908152602001600020549050919050565b600160009054906101000a900473ffffffffffffffffffffffffffffffffffffffff1673ffffffffffffffffffffffffffffffffffffffff163373ffffffffffffffffffffffffffffffffffffffff16146105a1576040517f08c379a000000000000000000000000000000000000000000000000000000000815260040161059890610f6f565b60405180910390fd5b6105ad60008284610b06565b81600260008373ffffffffffffffffffffffffffffffffffffffff1673ffffffffffffffffffffffffffffffffffffffff16815260200190815260200160002060008282546105fc9190610eef565b92505081905550816000808282546106149190610eef565b925050819055508073ffffffffffffffffffffffffffffffffffffffff16600073ffffffffffffffffffffffffffffffffffffffff167fddf252ad1be2c89b69c2b068fc378daa952ba7f163c4a11628f55a4df523b3ef846040516106799190610ca5565b60405180910390a35050565b60606005805461069490610def565b80601f01602080910402602001604051908101604052809291908181526020018280546106c090610def565b801561070d5780601f106106e25761010080835404028352916020019161070d565b820191906000526020600020905b8154815290600101906020018083116106f057829003601f168201915b5050505050905090565b600160009054906101000a900473ffffffffffffffffffffffffffffffffffffffff1673ffffffffffffffffffffffffffffffffffffffff163373ffffffffffffffffffffffffffffffffffffffff16146107a7576040517f08c379a000000000000000000000000000000000000000000000000000000000815260040161079e90610f6f565b60405180910390fd5b6107b382600083610b06565b80600260008473ffffffffffffffffffffffffffffffffffffffff1673ffffffffffffffffffffffffffffffffffffffff16815260200190815260200160002060008282546108029190610ebb565b925050819055508060008082825461081a9190610ebb565b925050819055505050565b338180610831836104c8565b1015610872576040517f08c379a000000000000000000000000000000000000000000000000000000000815260040161086990610e6c565b60405180910390fd5b61087d338585610b06565b82600260003373ffffffffffffffffffffffffffffffffffffffff1673ffffffffffffffffffffffffffffffffffffffff16815260200190815260200160002060008282546108cc9190610ebb565b9250508190555082600260008673ffffffffffffffffffffffffffffffffffffffff1673ffffffffffffffffffffffffffffffffffffffff16815260200190815260200160002060008282546109229190610eef565b925050819055508373ffffffffffffffffffffffffffffffffffffffff163373ffffffffffffffffffffffffffffffffffffffff167fddf252ad1be2c89b69c2b068fc378daa952ba7f163c4a11628f55a4df523b3ef856040516109869190610ca5565b60405180910390a350505050565b6000600360008473ffffffffffffffffffffffffffffffffffffffff1673ffffffffffffffffffffffffffffffffffffffff16815260200190815260200160002060008373ffffffffffffffffffffffffffffffffffffffff1673ffffffffffffffffffffffffffffffffffffffff16815260200190815260200160002054905092915050565b80600360008573ffffffffffffffffffffffffffffffffffffffff1673ffffffffffffffffffffffffffffffffffffffff16815260200190815260200160002060008473ffffffffffffffffffffffffffffffffffffffff1673ffffffffffffffffffffffffffffffffffffffff168152602001908152602001600020819055508173ffffffffffffffffffffffffffffffffffffffff168373ffffffffffffffffffffffffffffffffffffffff167f6e11fb1b7f119e3f2fa29896ef5fdf8b8a2d0d4df6fe90ba8668e7d8b2ffa25e83604051610af99190610ca5565b60405180910390a3505050565b505050565b600081519050919050565b600082825260208201905092915050565b60005b83811015610b45578082015181840152602081019050610b2a565b60008484015250505050565b6000601f19601f8301169050919050565b6000610b6d82610b0b565b610b778185610b16565b9350610b87818560208601610b27565b610b9081610b51565b840191505092915050565b60006020820190508181036000830152610bb58184610b62565b905092915050565b600080fd5b600073ffffffffffffffffffffffffffffffffffffffff82169050919050565b6000610bed82610bc2565b9050919050565b610bfd81610be2565b8114610c0857600080fd5b50565b600081359050610c1a81610bf4565b92915050565b6000819050919050565b610c3381610c20565b8114610c3e57600080fd5b50565b600081359050610c5081610c2a565b92915050565b60008060408385031215610c6d57610c6c610bbd565b5b6000610c7b85828601610c0b565b9250506020610c8c85828601610c41565b9150509250929050565b610c9f81610c20565b82525050565b6000602082019050610cba6000830184610c96565b92915050565b600080600060608486031215610cd957610cd8610bbd565b5b6000610ce786828701610c0b565b9350506020610cf886828701610c0b565b9250506040610d0986828701610c41565b9150509250925092565b600060208284031215610d2957610d28610bbd565b5b6000610d3784828501610c0b565b91505092915050565b60008060408385031215610d5757610d56610bbd565b5b6000610d6585828601610c41565b9250506020610d7685828601610c0b565b9150509250929050565b60008060408385031215610d9757610d96610bbd565b5b6000610da585828601610c0b565b9250506020610db685828601610c0b565b9150509250929050565b7f4e487b7100000000000000000000000000000000000000000000000000000000600052602260045260246000fd5b60006002820490506001821680610e0757607f821691505b602082108103610e1a57610e19610dc0565b5b50919050565b7f6e6f7420656e6f75676820746f6b656e73210000000000000000000000000000600082015250565b6000610e56601283610b16565b9150610e6182610e20565b602082019050919050565b60006020820190508181036000830152610e8581610e49565b9050919050565b7f4e487b7100000000000000000000000000000000000000000000000000000000600052601160045260246000fd5b6000610ec682610c20565b9150610ed183610c20565b9250828203905081811115610ee957610ee8610e8c565b5b92915050565b6000610efa82610c20565b9150610f0583610c20565b9250828201905080821115610f1d57610f1c610e8c565b5b92915050565b7f6e6f7420616e206f776e65722100000000000000000000000000000000000000600082015250565b6000610f59600d83610b16565b9150610f6482610f23565b602082019050919050565b60006020820190508181036000830152610f8881610f4c565b905091905056fea264697066735822122074783c39db8d304c911c70d81749d3fd5c21df95ab858bb2ecc3f9116e3b8bcb64736f6c63430008110033",
  "linkReferences": {},
  "deployedLinkReferences": {}
}