{
  "_format": "hh-sol-artifact-1",
  "contractName": "LibDemo",
  "sourceName": "contracts/LibDemo.sol",
  "abi": [
    {
      "inputs": [
        {
          "internalType": "uint256[]",
          "name": "numbers",
          "type": "uint256[]"
        },
        {
          "internalType": "uint256",
          "name": "number",
          "type": "uint256"
        }
      ],
      "name": "runnerArr",
      "outputs": [
        {
          "internalType": "bool",
          "name": "",
          "type": "bool"
        }
      ],
      "stateMutability": "pure",
      "type": "function"
    },
    {
      "inputs": [
        {
          "internalType": "string",
          "name": "str1",
          "type": "string"
        },
        {
          "internalType": "string",
          "name": "str2",
          "type": "string"
        }
      ],
      "name": "runnerStr",
      "outputs": [
        {
          "internalType": "bool",
          "name": "",
          "type": "bool"
        }
      ],
      "stateMutability": "pure",
      "type": "function"
    }
  ],
  "bytecode": "0x608060405234801561001057600080fd5b50610668806100206000396000f3fe608060405234801561001057600080fd5b50600436106100365760003560e01c80630d0fa55b1461003b5780637fbf82871461006b575b600080fd5b6100556004803603810190610050919061032c565b61009b565b60405161006291906103a3565b60405180910390f35b61008560048036038101906100809190610473565b6100b8565b60405161009291906103a3565b60405180910390f35b60006100b082846100d590919063ffffffff16565b905092915050565b60006100cd828461013090919063ffffffff16565b905092915050565b600080600090505b835181101561012457828482815181106100fa576100f96104eb565b5b60200260200101510361011157600191505061012a565b808061011c90610549565b9150506100dd565b50600090505b92915050565b6000816040516020016101439190610610565b604051602081830303815290604052805190602001208360405160200161016a9190610610565b6040516020818303038152906040528051906020012014905092915050565b6000604051905090565b600080fd5b600080fd5b600080fd5b6000601f19601f8301169050919050565b7f4e487b7100000000000000000000000000000000000000000000000000000000600052604160045260246000fd5b6101eb826101a2565b810181811067ffffffffffffffff8211171561020a576102096101b3565b5b80604052505050565b600061021d610189565b905061022982826101e2565b919050565b600067ffffffffffffffff821115610249576102486101b3565b5b602082029050602081019050919050565b600080fd5b6000819050919050565b6102728161025f565b811461027d57600080fd5b50565b60008135905061028f81610269565b92915050565b60006102a86102a38461022e565b610213565b905080838252602082019050602084028301858111156102cb576102ca61025a565b5b835b818110156102f457806102e08882610280565b8452602084019350506020810190506102cd565b5050509392505050565b600082601f8301126103135761031261019d565b5b8135610323848260208601610295565b91505092915050565b6000806040838503121561034357610342610193565b5b600083013567ffffffffffffffff81111561036157610360610198565b5b61036d858286016102fe565b925050602061037e85828601610280565b9150509250929050565b60008115159050919050565b61039d81610388565b82525050565b60006020820190506103b86000830184610394565b92915050565b600080fd5b600067ffffffffffffffff8211156103de576103dd6101b3565b5b6103e7826101a2565b9050602081019050919050565b82818337600083830152505050565b6000610416610411846103c3565b610213565b905082815260208101848484011115610432576104316103be565b5b61043d8482856103f4565b509392505050565b600082601f83011261045a5761045961019d565b5b813561046a848260208601610403565b91505092915050565b6000806040838503121561048a57610489610193565b5b600083013567ffffffffffffffff8111156104a8576104a7610198565b5b6104b485828601610445565b925050602083013567ffffffffffffffff8111156104d5576104d4610198565b5b6104e185828601610445565b9150509250929050565b7f4e487b7100000000000000000000000000000000000000000000000000000000600052603260045260246000fd5b7f4e487b7100000000000000000000000000000000000000000000000000000000600052601160045260246000fd5b60006105548261025f565b91507fffffffffffffffffffffffffffffffffffffffffffffffffffffffffffffffff82036105865761058561051a565b5b600182019050919050565b600081519050919050565b600082825260208201905092915050565b60005b838110156105cb5780820151818401526020810190506105b0565b60008484015250505050565b60006105e282610591565b6105ec818561059c565b93506105fc8185602086016105ad565b610605816101a2565b840191505092915050565b6000602082019050818103600083015261062a81846105d7565b90509291505056fea264697066735822122020f21a4ab6e5644fe1cdd27d86d6146ab21bab971c6467b48b6513e8f946e53e64736f6c63430008110033",
  "linkReferences": {},
  "deployedLinkReferences": {}
}