{
  "_format": "hh-sol-artifact-1",
  "contractName": "DosAuction",
  "sourceName": "contracts/Dos.sol",
  "abi": [
    {
      "inputs": [
        {
          "internalType": "uint256",
          "name": "",
          "type": "uint256"
        }
      ],
      "name": "allBidders",
      "outputs": [
        {
          "internalType": "address",
          "name": "",
          "type": "address"
        }
      ],
      "stateMutability": "view",
      "type": "function"
    },
    {
      "inputs": [],
      "name": "bid",
      "outputs": [],
      "stateMutability": "payable",
      "type": "function"
    },
    {
      "inputs": [
        {
          "internalType": "address",
          "name": "",
          "type": "address"
        }
      ],
      "name": "bidders",
      "outputs": [
        {
          "internalType": "uint256",
          "name": "",
          "type": "uint256"
        }
      ],
      "stateMutability": "view",
      "type": "function"
    },
    {
      "inputs": [],
      "name": "refund",
      "outputs": [],
      "stateMutability": "nonpayable",
      "type": "function"
    },
    {
      "inputs": [],
      "name": "refundProgress",
      "outputs": [
        {
          "internalType": "uint256",
          "name": "",
          "type": "uint256"
        }
      ],
      "stateMutability": "view",
      "type": "function"
    }
  ],
  "bytecode": "0x608060405234801561001057600080fd5b506106b8806100206000396000f3fe60806040526004361061004a5760003560e01c80631998aeef1461004f578063590e1ae314610059578063a013781b14610070578063ba8834fd146100ad578063fcc8f793146100d8575b600080fd5b610057610115565b005b34801561006557600080fd5b5061006e6101cf565b005b34801561007c57600080fd5b50610097600480360381019061009291906103d9565b610341565b6040516100a49190610447565b60405180910390f35b3480156100b957600080fd5b506100c2610380565b6040516100cf9190610471565b60405180910390f35b3480156100e457600080fd5b506100ff60048036038101906100fa91906104b8565b610386565b60405161010c9190610471565b60405180910390f35b346000803373ffffffffffffffffffffffffffffffffffffffff1673ffffffffffffffffffffffffffffffffffffffff16815260200190815260200160002060008282546101639190610514565b925050819055506001339080600181540180825580915050600190039060005260206000200160009091909190916101000a81548173ffffffffffffffffffffffffffffffffffffffff021916908373ffffffffffffffffffffffffffffffffffffffff160217905550565b600060025490505b60018054905081101561033e576000600182815481106101fa576101f9610548565b5b9060005260206000200160009054906101000a900473ffffffffffffffffffffffffffffffffffffffff16905060008173ffffffffffffffffffffffffffffffffffffffff166000808473ffffffffffffffffffffffffffffffffffffffff1673ffffffffffffffffffffffffffffffffffffffff1681526020019081526020016000205460405161028b906105a8565b60006040518083038185875af1925050503d80600081146102c8576040519150601f19603f3d011682016040523d82523d6000602084013e6102cd565b606091505b5050905080610311576040517f08c379a00000000000000000000000000000000000000000000000000000000081526004016103089061061a565b60405180910390fd5b600260008154809291906103249061063a565b9190505550505080806103369061063a565b9150506101d7565b50565b6001818154811061035157600080fd5b906000526020600020016000915054906101000a900473ffffffffffffffffffffffffffffffffffffffff1681565b60025481565b60006020528060005260406000206000915090505481565b600080fd5b6000819050919050565b6103b6816103a3565b81146103c157600080fd5b50565b6000813590506103d3816103ad565b92915050565b6000602082840312156103ef576103ee61039e565b5b60006103fd848285016103c4565b91505092915050565b600073ffffffffffffffffffffffffffffffffffffffff82169050919050565b600061043182610406565b9050919050565b61044181610426565b82525050565b600060208201905061045c6000830184610438565b92915050565b61046b816103a3565b82525050565b60006020820190506104866000830184610462565b92915050565b61049581610426565b81146104a057600080fd5b50565b6000813590506104b28161048c565b92915050565b6000602082840312156104ce576104cd61039e565b5b60006104dc848285016104a3565b91505092915050565b7f4e487b7100000000000000000000000000000000000000000000000000000000600052601160045260246000fd5b600061051f826103a3565b915061052a836103a3565b9250828201905080821115610542576105416104e5565b5b92915050565b7f4e487b7100000000000000000000000000000000000000000000000000000000600052603260045260246000fd5b600081905092915050565b50565b6000610592600083610577565b915061059d82610582565b600082019050919050565b60006105b382610585565b9150819050919050565b600082825260208201905092915050565b7f6661696c65642100000000000000000000000000000000000000000000000000600082015250565b60006106046007836105bd565b915061060f826105ce565b602082019050919050565b60006020820190508181036000830152610633816105f7565b9050919050565b6000610645826103a3565b91507fffffffffffffffffffffffffffffffffffffffffffffffffffffffffffffffff8203610677576106766104e5565b5b60018201905091905056fea264697066735822122008ce8f2355a9571d0c104bac2e9e9d5f9a6a3b85611d9e99f7c47fa25e06b59064736f6c63430008110033",
  "linkReferences": {},
  "deployedLinkReferences": {}
}