{
  "_format": "hh-sol-artifact-1",
  "contractName": "AucEngine",
  "sourceName": "contracts/AucEngine.sol",
  "abi": [
    {
      "inputs": [],
      "stateMutability": "nonpayable",
      "type": "constructor"
    },
    {
      "anonymous": false,
      "inputs": [
        {
          "indexed": false,
          "internalType": "uint256",
          "name": "index",
          "type": "uint256"
        },
        {
          "indexed": false,
          "internalType": "string",
          "name": "itemName",
          "type": "string"
        },
        {
          "indexed": false,
          "internalType": "uint256",
          "name": "startingPrice",
          "type": "uint256"
        },
        {
          "indexed": false,
          "internalType": "uint256",
          "name": "duration",
          "type": "uint256"
        }
      ],
      "name": "AuctionCreated",
      "type": "event"
    },
    {
      "anonymous": false,
      "inputs": [
        {
          "indexed": false,
          "internalType": "uint256",
          "name": "index",
          "type": "uint256"
        },
        {
          "indexed": false,
          "internalType": "uint256",
          "name": "finalPrice",
          "type": "uint256"
        },
        {
          "indexed": false,
          "internalType": "address",
          "name": "winner",
          "type": "address"
        }
      ],
      "name": "AuctionEnded",
      "type": "event"
    },
    {
      "inputs": [
        {
          "internalType": "uint256",
          "name": "",
          "type": "uint256"
        }
      ],
      "name": "auctions",
      "outputs": [
        {
          "internalType": "address payable",
          "name": "seller",
          "type": "address"
        },
        {
          "internalType": "uint256",
          "name": "startingPrice",
          "type": "uint256"
        },
        {
          "internalType": "uint256",
          "name": "finalPrice",
          "type": "uint256"
        },
        {
          "internalType": "uint256",
          "name": "startAt",
          "type": "uint256"
        },
        {
          "internalType": "uint256",
          "name": "endsAt",
          "type": "uint256"
        },
        {
          "internalType": "uint256",
          "name": "discountRate",
          "type": "uint256"
        },
        {
          "internalType": "string",
          "name": "item",
          "type": "string"
        },
        {
          "internalType": "bool",
          "name": "stopped",
          "type": "bool"
        }
      ],
      "stateMutability": "view",
      "type": "function"
    },
    {
      "inputs": [
        {
          "internalType": "uint256",
          "name": "index",
          "type": "uint256"
        }
      ],
      "name": "buy",
      "outputs": [],
      "stateMutability": "payable",
      "type": "function"
    },
    {
      "inputs": [
        {
          "internalType": "uint256",
          "name": "_startingPrice",
          "type": "uint256"
        },
        {
          "internalType": "uint256",
          "name": "_discountRate",
          "type": "uint256"
        },
        {
          "internalType": "string",
          "name": "_item",
          "type": "string"
        },
        {
          "internalType": "uint256",
          "name": "_duration",
          "type": "uint256"
        }
      ],
      "name": "createAuction",
      "outputs": [],
      "stateMutability": "nonpayable",
      "type": "function"
    },
    {
      "inputs": [
        {
          "internalType": "uint256",
          "name": "index",
          "type": "uint256"
        }
      ],
      "name": "getPriceFor",
      "outputs": [
        {
          "internalType": "uint256",
          "name": "",
          "type": "uint256"
        }
      ],
      "stateMutability": "view",
      "type": "function"
    },
    {
      "inputs": [],
      "name": "owner",
      "outputs": [
        {
          "internalType": "address",
          "name": "",
          "type": "address"
        }
      ],
      "stateMutability": "view",
      "type": "function"
    },
    {
      "inputs": [
        {
          "internalType": "address payable",
          "name": "_to",
          "type": "address"
        }
      ],
      "name": "withdraw",
      "outputs": [],
      "stateMutability": "nonpayable",
      "type": "function"
    }
  ],
  "bytecode": "0x608060405234801561001057600080fd5b50336000806101000a81548173ffffffffffffffffffffffffffffffffffffffff021916908373ffffffffffffffffffffffffffffffffffffffff16021790555061161f806100606000396000f3fe6080604052600436106100555760003560e01c80634534cd9c1461005a57806351cff8d914610097578063571a26a0146100c05780638da5cb5b14610104578063d96a094a1461012f578063e9835d151461014b575b600080fd5b34801561006657600080fd5b50610081600480360381019061007c9190610a83565b610174565b60405161008e9190610abf565b60405180910390f35b3480156100a357600080fd5b506100be60048036038101906100b99190610b38565b610363565b005b3480156100cc57600080fd5b506100e760048036038101906100e29190610a83565b6104ac565b6040516100fb989796959493929190610c1f565b60405180910390f35b34801561011057600080fd5b506101196105b9565b6040516101269190610cc5565b60405180910390f35b61014960048036038101906101449190610a83565b6105dd565b005b34801561015757600080fd5b50610172600480360381019061016d9190610e15565b610841565b005b6000806001838154811061018b5761018a610e98565b5b9060005260206000209060080201604051806101000160405290816000820160009054906101000a900473ffffffffffffffffffffffffffffffffffffffff1673ffffffffffffffffffffffffffffffffffffffff1673ffffffffffffffffffffffffffffffffffffffff168152602001600182015481526020016002820154815260200160038201548152602001600482015481526020016005820154815260200160068201805461023d90610ef6565b80601f016020809104026020016040519081016040528092919081815260200182805461026990610ef6565b80156102b65780601f1061028b576101008083540402835291602001916102b6565b820191906000526020600020905b81548152906001019060200180831161029957829003601f168201915b505050505081526020016007820160009054906101000a900460ff16151515158152505090508060e0015115610321576040517f08c379a000000000000000000000000000000000000000000000000000000000815260040161031890610f73565b60405180910390fd5b60008160600151426103339190610fc2565b90506000818360a001516103479190610ff6565b90508083602001516103599190610fc2565b9350505050919050565b8060008054906101000a900473ffffffffffffffffffffffffffffffffffffffff1673ffffffffffffffffffffffffffffffffffffffff163373ffffffffffffffffffffffffffffffffffffffff16146103f2576040517f08c379a00000000000000000000000000000000000000000000000000000000081526004016103e990611084565b60405180910390fd5b600073ffffffffffffffffffffffffffffffffffffffff168173ffffffffffffffffffffffffffffffffffffffff1603610461576040517f08c379a0000000000000000000000000000000000000000000000000000000008152600401610458906110f0565b60405180910390fd5b8173ffffffffffffffffffffffffffffffffffffffff166108fc479081150290604051600060405180830381858888f193505050501580156104a7573d6000803e3d6000fd5b505050565b600181815481106104bc57600080fd5b90600052602060002090600802016000915090508060000160009054906101000a900473ffffffffffffffffffffffffffffffffffffffff169080600101549080600201549080600301549080600401549080600501549080600601805461052390610ef6565b80601f016020809104026020016040519081016040528092919081815260200182805461054f90610ef6565b801561059c5780601f106105715761010080835404028352916020019161059c565b820191906000526020600020905b81548152906001019060200180831161057f57829003601f168201915b5050505050908060070160009054906101000a900460ff16905088565b60008054906101000a900473ffffffffffffffffffffffffffffffffffffffff1681565b6000600182815481106105f3576105f2610e98565b5b906000526020600020906008020190508060070160009054906101000a900460ff1615610655576040517f08c379a000000000000000000000000000000000000000000000000000000000815260040161064c90610f73565b60405180910390fd5b8060040154421061069b576040517f08c379a00000000000000000000000000000000000000000000000000000000081526004016106929061115c565b60405180910390fd5b60006106a683610174565b9050803410156106eb576040517f08c379a00000000000000000000000000000000000000000000000000000000081526004016106e2906111c8565b60405180910390fd5b60018260070160006101000a81548160ff0219169083151502179055508082600201819055506000813461071f9190610fc2565b90506000811115610772573373ffffffffffffffffffffffffffffffffffffffff166108fc829081150290604051600060405180830381858888f19350505050158015610770573d6000803e3d6000fd5b505b8260000160009054906101000a900473ffffffffffffffffffffffffffffffffffffffff1673ffffffffffffffffffffffffffffffffffffffff166108fc6064600a856107bf9190610ff6565b6107c99190611217565b846107d49190610fc2565b9081150290604051600060405180830381858888f193505050501580156107ff573d6000803e3d6000fd5b507fbafc4bda865d4d1f8d5b16f883e996fde0fe71112fac81503876d3537569440084833360405161083393929190611248565b60405180910390a150505050565b60008082146108505781610855565b6202a3005b905080846108639190610ff6565b8510156108a5576040517f08c379a000000000000000000000000000000000000000000000000000000000815260040161089c906112cb565b60405180910390fd5b60006040518061010001604052803373ffffffffffffffffffffffffffffffffffffffff16815260200187815260200187815260200142815260200183426108ed91906112eb565b8152602001868152602001858152602001600015158152509050600181908060018154018082558091505060019003906000526020600020906008020160009091909190915060008201518160000160006101000a81548173ffffffffffffffffffffffffffffffffffffffff021916908373ffffffffffffffffffffffffffffffffffffffff1602179055506020820151816001015560408201518160020155606082015181600301556080820151816004015560a0820151816005015560c08201518160060190816109c191906114cb565b5060e08201518160070160006101000a81548160ff02191690831515021790555050507f5bf34ed94988e5dcdc7d1faaa54eb1d3b55f45d5f11457e235afb21a8ebbe73c60018080549050610a169190610fc2565b858885604051610a29949392919061159d565b60405180910390a1505050505050565b6000604051905090565b600080fd5b600080fd5b6000819050919050565b610a6081610a4d565b8114610a6b57600080fd5b50565b600081359050610a7d81610a57565b92915050565b600060208284031215610a9957610a98610a43565b5b6000610aa784828501610a6e565b91505092915050565b610ab981610a4d565b82525050565b6000602082019050610ad46000830184610ab0565b92915050565b600073ffffffffffffffffffffffffffffffffffffffff82169050919050565b6000610b0582610ada565b9050919050565b610b1581610afa565b8114610b2057600080fd5b50565b600081359050610b3281610b0c565b92915050565b600060208284031215610b4e57610b4d610a43565b5b6000610b5c84828501610b23565b91505092915050565b610b6e81610afa565b82525050565b600081519050919050565b600082825260208201905092915050565b60005b83811015610bae578082015181840152602081019050610b93565b60008484015250505050565b6000601f19601f8301169050919050565b6000610bd682610b74565b610be08185610b7f565b9350610bf0818560208601610b90565b610bf981610bba565b840191505092915050565b60008115159050919050565b610c1981610c04565b82525050565b600061010082019050610c35600083018b610b65565b610c42602083018a610ab0565b610c4f6040830189610ab0565b610c5c6060830188610ab0565b610c696080830187610ab0565b610c7660a0830186610ab0565b81810360c0830152610c888185610bcb565b9050610c9760e0830184610c10565b9998505050505050505050565b6000610caf82610ada565b9050919050565b610cbf81610ca4565b82525050565b6000602082019050610cda6000830184610cb6565b92915050565b600080fd5b600080fd5b7f4e487b7100000000000000000000000000000000000000000000000000000000600052604160045260246000fd5b610d2282610bba565b810181811067ffffffffffffffff82111715610d4157610d40610cea565b5b80604052505050565b6000610d54610a39565b9050610d608282610d19565b919050565b600067ffffffffffffffff821115610d8057610d7f610cea565b5b610d8982610bba565b9050602081019050919050565b82818337600083830152505050565b6000610db8610db384610d65565b610d4a565b905082815260208101848484011115610dd457610dd3610ce5565b5b610ddf848285610d96565b509392505050565b600082601f830112610dfc57610dfb610ce0565b5b8135610e0c848260208601610da5565b91505092915050565b60008060008060808587031215610e2f57610e2e610a43565b5b6000610e3d87828801610a6e565b9450506020610e4e87828801610a6e565b935050604085013567ffffffffffffffff811115610e6f57610e6e610a48565b5b610e7b87828801610de7565b9250506060610e8c87828801610a6e565b91505092959194509250565b7f4e487b7100000000000000000000000000000000000000000000000000000000600052603260045260246000fd5b7f4e487b7100000000000000000000000000000000000000000000000000000000600052602260045260246000fd5b60006002820490506001821680610f0e57607f821691505b602082108103610f2157610f20610ec7565b5b50919050565b7f73746f7070656421000000000000000000000000000000000000000000000000600082015250565b6000610f5d600883610b7f565b9150610f6882610f27565b602082019050919050565b60006020820190508181036000830152610f8c81610f50565b9050919050565b7f4e487b7100000000000000000000000000000000000000000000000000000000600052601160045260246000fd5b6000610fcd82610a4d565b9150610fd883610a4d565b9250828203905081811115610ff057610fef610f93565b5b92915050565b600061100182610a4d565b915061100c83610a4d565b925082820261101a81610a4d565b9150828204841483151761103157611030610f93565b5b5092915050565b7f796f7520617265206e6f7420616e206f776e6572210000000000000000000000600082015250565b600061106e601583610b7f565b915061107982611038565b602082019050919050565b6000602082019050818103600083015261109d81611061565b9050919050565b7f696e636f72726563742061646472657373210000000000000000000000000000600082015250565b60006110da601283610b7f565b91506110e5826110a4565b602082019050919050565b60006020820190508181036000830152611109816110cd565b9050919050565b7f656e646564210000000000000000000000000000000000000000000000000000600082015250565b6000611146600683610b7f565b915061115182611110565b602082019050919050565b6000602082019050818103600083015261117581611139565b9050919050565b7f6e6f7420656e6f7567682066756e647321000000000000000000000000000000600082015250565b60006111b2601183610b7f565b91506111bd8261117c565b602082019050919050565b600060208201905081810360008301526111e1816111a5565b9050919050565b7f4e487b7100000000000000000000000000000000000000000000000000000000600052601260045260246000fd5b600061122282610a4d565b915061122d83610a4d565b92508261123d5761123c6111e8565b5b828204905092915050565b600060608201905061125d6000830186610ab0565b61126a6020830185610ab0565b6112776040830184610cb6565b949350505050565b7f696e636f7272656374207374617274696e672070726963650000000000000000600082015250565b60006112b5601883610b7f565b91506112c08261127f565b602082019050919050565b600060208201905081810360008301526112e4816112a8565b9050919050565b60006112f682610a4d565b915061130183610a4d565b925082820190508082111561131957611318610f93565b5b92915050565b60008190508160005260206000209050919050565b60006020601f8301049050919050565b600082821b905092915050565b6000600883026113817fffffffffffffffffffffffffffffffffffffffffffffffffffffffffffffffff82611344565b61138b8683611344565b95508019841693508086168417925050509392505050565b6000819050919050565b60006113c86113c36113be84610a4d565b6113a3565b610a4d565b9050919050565b6000819050919050565b6113e2836113ad565b6113f66113ee826113cf565b848454611351565b825550505050565b600090565b61140b6113fe565b6114168184846113d9565b505050565b5b8181101561143a5761142f600082611403565b60018101905061141c565b5050565b601f82111561147f576114508161131f565b61145984611334565b81016020851015611468578190505b61147c61147485611334565b83018261141b565b50505b505050565b600082821c905092915050565b60006114a260001984600802611484565b1980831691505092915050565b60006114bb8383611491565b9150826002028217905092915050565b6114d482610b74565b67ffffffffffffffff8111156114ed576114ec610cea565b5b6114f78254610ef6565b61150282828561143e565b600060209050601f8311600181146115355760008415611523578287015190505b61152d85826114af565b865550611595565b601f1984166115438661131f565b60005b8281101561156b57848901518255600182019150602085019450602081019050611546565b868310156115885784890151611584601f891682611491565b8355505b6001600288020188555050505b505050505050565b60006080820190506115b26000830187610ab0565b81810360208301526115c48186610bcb565b90506115d36040830185610ab0565b6115e06060830184610ab0565b9594505050505056fea2646970667358221220f552d1deb4fad7a061a02d764f14180943320eeb4079d10f261e53e2caf4871d64736f6c63430008110033",
  "linkReferences": {},
  "deployedLinkReferences": {}
}